:020000040800F2
:1000000010810020A9010008D5150008D3140008AC
:10001000B5010008B7010008B901000800000000A0
:10002000000000000000000000000000BB0100080C
:10003000F503000800000000BF01000811160008C9
:10004000C3010008C3010008C3010008C301000880
:10005000C3010008C3010008C3010008C301000870
:10006000C3010008C3010008C3010008C301000860
:10007000C3010008C3010008C3010008C301000850
:10008000C3010008C3010008C3010008000000000C
:10009000000000000000000000000000C301000894
:1000A000C3010008C3010008C3010008C301000820
:1000B000C301000839170008C3010008C301000884
:1000C000C3010008C3010008C3010008C301000800
:1000D000C3010008C3010008C301000800000000BC
:1000E000F7030008C3010008C30100080000000076
:1000F000000000000000000000000000C301000834
:1001000000000000C3010008C3010008C30100088B
:1001100000000000000000000000000000000000DF
:10012000C3010008C3010008C3010008C30100089F
:10013000C3010008000000000000000000000000F3
:10014000000000000000000000000000C3010008E3
:10015000C3010008C3010008C3010008C30100086F
:10016000C3010008C30100080000000000000000F7
:10017000000000000000000000000000000000007F
:1001800000000000C30100080000000000000000A3
:10019000C3010008DFF80CD000F07AF800480047EF
:1001A000691700081081002006488047064800476C
:1001B000FEE7FEE7FEE7FEE7FEE7FEE7FEE7FEE717
:1001C000FEE7FEE7D5160008950100082DE9F05F6F
:1001D0000546002092469B468846064681464024B6
:1001E0001BE0284641464746224600F041F8534668
:1001F0005A46C01A914110D311461846224600F0C3
:1002000028F82D1A67EB01084F46224601200021ED
:1002100000F01FF817EB00094E41201EA4F1010465
:10022000DFDC484631462A464346BDE8F09FD2B25D
:1002300001E000F8012B491EFBD270470022F6E7CF
:1002400010B513460A4604461946FFF7F0FF20464C
:1002500010BD202A04DB203A00FA02F1002070478A
:100260009140C2F1200320FA03F3194390407047F4
:10027000202A04DB203A21FA02F00021704721FAFB
:1002800002F3D040C2F12002914008431946704762
:10029000064C074D06E0E06840F0010394E80700D3
:1002A00098471034AC42F6D3FFF778FFCC1700081C
:1002B000EC17000810B586B0044600BF002000907F
:1002C0001348006840F001001149086008460068C2
:1002D00000F00100009000BF00BF0E4830F814008D
:1002E00001900120029000200390022004900A490E
:1002F00051F8240001A900F0B7F8064A32F81410AA
:10030000054A52F82400002200F098F906B010BD0A
:1003100030380240AC1700080000002010B5044639
:10032000044A32F81410044A52F82400002200F063
:1003300085F910BDAC1700080000002010B5044678
:10034000044A32F81410044A52F82400012200F042
:1003500075F910BDAC1700080000002030B587B05B
:1003600004460D4600BF002001901D48006840F083
:1003700004001B4908600846006800F00400019072
:1003800000BF00BF75B9174830F814000290002074
:100390000390022004900590134951F8240002A90B
:1003A00000F062F8012D19D10E4830F814000290C7
:1003B000002004900D4803900B4951F8240002A935
:1003C00000F052F80A49095D48B200220F2100F0FE
:1003D000DDFB0749095D48B200F0CBFB07B030BD3B
:1003E00030380240AE170008040000200000211041
:1003F000B0170008704710B54FF4005000F026F811
:1004000010BD00BF0020FFF799FF642000F008F83E
:100410000020FFF783FF642000F002F8F2E70000FD
:1004200070B5044600F010F906462546681C10B168
:1004300004480078054400BF00F006F9801BA8427C
:10044000FAD370BD180000207047000010B50446B4
:1004500004480068204020B1024804602046FFF7AD
:10046000F3FF10BD143C0140F8B503460A460025D1
:10047000002400200021CDE0012606FA01F51668CF
:1004800006EA0504AC4273D15668022E02D05668C3
:10049000122E13D1CF0803F1200656F827004E077D
:1004A000F70E0F26BE40B0434F07FF0E1669BE4041
:1004B0003043CF0803F1200646F8270018684F00A4
:1004C0000326BE40B043167906F003064F00BE4037
:1004D000304318605668012E08D05668022E05D0A9
:1004E0005668112E02D05668122E13D198684F000C
:1004F0000326BE40B0434F00D668BE4030439860EC
:10050000586801268E40B0431679C6F300168E4017
:1005100030435860D8684F000326BE40B0434F00B8
:100520009668BE403043D860566806F08056B6F1F3
:10053000805F6ED100BF00260096384E366846F4C4
:100540008046364F3E603E46366806F4804600964A
:1005500000BF00BF324E8F0856F827008E07370FB6
:100560000F26BE40B0432F4EB34202D1002615E005
:100570004FE02D4EB34201D101260FE02B4EB34286
:1005800001D102260AE02A4EB34201D1032605E03A
:10059000284EB34201D1042600E007268F073F0F03
:1005A000BE4030431E4E8F0846F82700224E30686A
:1005B000A043566806F48036B6F5803F00D120434C
:1005C0001D4E3060361D3068A043566806F4003674
:1005D000B6F5003F00D12043174E361D3060361D62
:1005E0003068A043566806F48016B6F5801F00D127
:1005F0002043114E08363060361D3068A0435668DF
:1006000006F40016B6F5001F00D120430A4E0C3642
:100610003060491C1029FFF42FAFF8BD4438024068
:100620000838014000000240000402400008024077
:10063000000C024000100240003C01400AB1816100
:1006400001E00B04836170470148006870470000B7
:100650001000002070B504460CB9012070BD94F85C
:100660003D0028B9002084F83C00204600F0A0F9A5
:10067000242084F83D002068006820F001002168F3
:10068000086000F09BFB05465C496068884206D81C
:100690005B48854201D2012007E0002005E059486F
:1006A000854201D2012000E00020012800D1D5E7D9
:1006B0005548B5FBF0F62068406820F03F00304315
:1006C000216848604D496068884201D8701C07E085
:1006D0004FF4967070434FF47A71B0FBF1F0401C08
:1006E0002168096A21F03F010843216808624349F3
:1006F0006068884214D8681E61684900B0FBF1F058
:10070000401CC0F30B00042801D204203DE0681E09
:1007100061684900B0FBF1F0401CC0F30B0034E00D
:10072000A06838B9681E616801EB4101B0FBF1F0C7
:10073000401C0AE0681E616801EBC10202EB011176
:10074000B0FBF1F0401C40F48040C0F30B0008B94E
:1007500001201AE0A06848B9681E616801EB4101F8
:10076000B0FBF1F0401CC0F30B000CE0681E6168A8
:1007700001EBC10202EB0111B0FBF1F0401CC0F330
:100780000B0040F4804040F400402168C9694CF6F9
:10079000FF72914308432168C861D4E90701084307
:1007A0002168096821F0C001084321680860D4E984
:1007B000031008432168896848F2FF3291430843D7
:1007C00021688860D4E9050108432168C96821F0DF
:1007D000FF0108432168C8602068006840F00100FC
:1007E0002168086000202064202084F83D0000205B
:1007F000206384F83E0000BF30E70000A0860100BF
:1008000080841E0000093D0040420F002DE9F84F92
:1008100004460F4690461E46FFF716FF05464FF06A
:10082000010994F83D0020287ED1192301225E4958
:100830002046009500F04FFE10B10220BDE8F88F71
:1008400000BF94F83C00012801D10220F6E7012006
:1008500084F83C0000BF2068006800F0010028B95F
:100860002068006840F00100216808602068006886
:1008700020F4006021680860242084F83D000020F6
:1008800020644A48E06200BF2068006840F480703D
:1008900021680860334600224FF001112046009580
:1008A00000F019FE08B10120C8E707F0FE0021683A
:1008B0000861FFF7C9FE054620684069C0F3400A99
:1008C00020684069C0F3802B10E0FFF7BDFE401B9D
:1008D000B04200D816B9A02084F83D0020684069D5
:1008E000C0F3400A20684069C0F3802B94F83D00B3
:1008F000A02805D0BAF1000F02D1BBF1000FE4D05F
:10090000202084F83D0020684069C0F3400028B3EF
:100910002068006840F400702168086000BF002073
:1009200000902068406900E03BE00090206880690A
:10093000009000BF00BF192301221B4920460095EB
:1009400000F0C9FD08B1012078E7202084F83D00BF
:1009500000BF002084F83C0000BF6FE720680068FB
:1009600040F40070216808606FF48060216848617D
:10097000192301220C492046009500F0ACFD08B176
:1009800001205BE709F10109C145FFF47DAF20209B
:1009900084F83D0000BF002084F83C0000BF012027
:1009A0004CE702204AE70000020010000000FFFFB1
:1009B00010B58CB00446142102A8FFF73FFC424951
:1009C000206888424DD100BF002001903F48006858
:1009D00040F004003D4908600846006800F004004B
:1009E000019000BF00BF00BF0020019008460068D2
:1009F00040F0010008600846006800F00100019026
:100A000000BF00BF48150290122003900020049000
:100A1000032005900420069002A92D48FFF724FD2D
:100A20004FF4807002901220039000200490032065
:100A300005900420069002A92648FFF715FD00BF87
:100A40000020019021481030006840F400001F4948
:100A5000103108600846006800F40000019000BFF3
:100A600030E000BF0020019018481030006840F4CA
:100A700000101649103108600846006800F40010A4
:100A8000019000BF00BF00BF002001900F48006828
:100A900040F002000D4908600846006800F00200BE
:100AA000019000BF00BF4FF44070079012200890E3
:100AB0000120099003200A9004200B9007A9064802
:100AC000FFF7D2FC0CB010BD005C00403038024093
:100AD0000008024000000240000402400348006891
:100AE0000349097808440149086070471000002054
:100AF0001800002010B50A48006840F4007008494A
:100B000008600846006840F480600860032000F038
:100B10007BF80F2000F006F800F02AF8002010BD46
:100B2000003C024070B504460E4800784FF47A71DC
:100B3000B1FBF0F00C490968B1FBF0F5284600F074
:100B4000C9FB08B1012070BD102C07D2002221463C
:100B5000501E00F01BF80548046001E00120F2E798
:100B60000020F0E7180000200C00002014000020F6
:100B7000704700BF00F01F0201219140420992001E
:100B800002F1E022C2F8001100BF70472DE9F05FCA
:100B900080460D461646002700F01EFD07463946E2
:100BA0002A46334601F00700C0F1070ABAF1040FE4
:100BB00002D94FF0040A01E0C0F1070AD14600F162
:100BC000040ABAF1070F02D24FF0000A01E0A0F1C7
:100BD000030AD4464FF0010A0AFA09FAAAF1010AF7
:100BE0000AEA020A0AFA0CFA4FF0010B0BFA0CFBA4
:100BF000ABF1010B0BEA030B4AEA0B04214640461A
:100C000000F0F2FCBDE8F09F00BF00F00702064BC9
:100C100019684FF6FF031940044B0B4343EA0221C6
:100C2000014B196000BF70470CED00E00000FA05B1
:100C300070B504460D460CB9012070BD58480068D7
:100C400000F00F00A84209D255490D70084600680F
:100C500000F00F00A84201D00120EEE7207800F05C
:100C6000020002281DD1207800F00400042805D1DC
:100C70004C48006840F4E0504A490860207800F091
:100C80000800082805D14748006840F460404549FD
:100C900008604448006820F0F000A168084341491A
:100CA0000860207800F00100A8B36068012807D12F
:100CB0003C4808380068C0F34040B8B90120BCE7A0
:100CC0006068022802D06068032807D135480838D8
:100CD0000068C0F3406048B90120AEE731480838E9
:100CE0000068C0F3400008B90120A6E72D4800685D
:100CF00020F00300616808432A490860FFF7A4FC5C
:100D0000064609E0FFF7A0FC801B41F288318842CB
:100D100002D9032091E707E02248006800F00C00A8
:100D20006168B0EB810FEDD11D48006800F00F0045
:100D3000A84209D91A490D700846006800F00F0052
:100D4000A84201D0012078E7207800F004000428B0
:100D500007D11448006820F4E050E16808431149C5
:100D60000860207800F00800082808D10D480068C5
:100D700020F46040216940EAC1000A49086000F09F
:100D80002DF808490968C1F30311074A515CC840AE
:100D9000064908600F20FFF7C5FE00204DE7000060
:100DA000003C024008380240B11700080C00002047
:100DB00001480068704700000C00002000B5FFF7F4
:100DC000F7FF04490968C1F38221034A515CC84016
:100DD00000BD000008380240C11700082DE9F047A7
:100DE000002400250026A1462548006800F00C00DC
:100DF00020B1042805D008283AD105E0DFF8849016
:100E000039E0DFF8849036E01D48001F006800F0EC
:100E10003F041B48001F006800F4800078B11A48A6
:100E20001749091F0968C1F38811A0FB0170014629
:100E3000224600233846FFF7C9F905460EE011485F
:100E40000F49091F0968C1F38811A0FB0170014611
:100E5000224600233846FFF7B9F905460848001F27
:100E60000068C0F30140401C4600B5FBF6F902E003
:100E7000DFF8109000BF00BF4846BDE8F0870000D3
:100E8000083802400024F40000127A00F8B5044645
:100E90000CB90120F8BD207800F00100002874D0C2
:100EA000F948006800F00C0004280DD0F6480068EE
:100EB00000F00C00082813D1F348001F006800F46C
:100EC0008000B0F5800F0BD1EF4808380068C0F300
:100ED0004040002859D06068002856D10120D9E749
:100EE00000BF6068B0F5803F08D1E7480838006867
:100EF00040F48030E449083908601EE06068B0F5CD
:100F0000A02F0DD1E0480838006840F48020DE4969
:100F1000083908600846006840F4803008600CE03A
:100F2000D9480838006820F48030D749083908606B
:100F30000846006820F48020086000BF606890B117
:100F4000FFF782FB054606E0FFF77EFB401B6428A7
:100F500001D903209EE7CC4808380068C0F3404020
:100F60000028F1D011E0FFF76FFB054606E0FFF720
:100F70006BFB401B642801D903208BE7C24808386B
:100F80000068C0F340400028F1D1207800F0020052
:100F900002285FD1BC48006800F00C0058B1BA4884
:100FA000006800F00C0008281CD1B748001F00683A
:100FB00000F48000B0B9B44808380068C0F34000BD
:100FC00020B1E068012801D0012063E7AE4808386D
:100FD000006820F0F800216940EAC100AA490839F8
:100FE000086037E0E06800B30120A8490860FFF717
:100FF0002BFB054606E0FFF727FB401B022801D923
:10100000032047E7A04808380068C0F340000028E4
:10101000F1D09D480838006820F0F800216940EAC6
:10102000C10099490839086014E000209749086018
:10103000FFF70AFB054606E0FFF706FB401B022808
:1010400001D9032026E7904808380068C0F3400023
:101050000028F1D1207800F0080008282CD1606920
:10106000A8B101208A490860FFF7EEFA054606E0BC
:10107000FFF7EAFA401B022801D903200AE7824859
:101080006C300068C0F340000028F1D014E000206C
:101090007F490860FFF7D8FA054606E0FFF7D4FA63
:1010A000401B022801D90320F4E677486C30006821
:1010B000C0F340000028F1D1207800F0040004289B
:1010C00070D1002670483830006800F0805090B928
:1010D00000BF002000906C483830006840F080501D
:1010E0006949383108600846006800F08050009077
:1010F00000BF00BF01266748006800F48070B0B9E7
:101100006448006840F4807062490860FFF79CFA08
:10111000054606E0FFF798FA401B022801D9032094
:10112000B8E65C48006800F480700028F2D000BF88
:10113000A068012808D154486830006840F00100D8
:101140005149683108601DE0A06805280DD14E485E
:101150006830006840F004004B4968310860084678
:10116000006840F0010008600CE047486830006803
:1011700020F001004449683108600846006820F00A
:101180000400086000BFA068A8B1FFF75DFA05463B
:1011900009E0FFF759FA401B41F28831884202D931
:1011A000032077E626E0384868300068C0F3400046
:1011B0000028EED013E0FFF747FA054608E0FFF7F6
:1011C00043FA401B41F28831884201D9032061E68D
:1011D0002D4868300068C0F340000028EFD1012E90
:1011E00007D129483830006820F08050264938312E
:1011F000086000BFA069B8B32348006800F00C0085
:1012000008285ED0A069022846D100201F49086640
:10121000FFF71AFA054606E0FFF716FA401B022808
:1012200001D9032036E6184808380068C0F340604A
:101230000028F1D1D4E907010843616A40EA81112D
:101240000122A06AC2EB500041EA00412C20005D5F
:1012500041EA00600C49091F086001200B4908663B
:10126000FFF7F2F9054607E02DE0FFF7EDF9401B27
:10127000022801D903200DE6034808380068C0F3AE
:1012800040600028F1D01EE00838024000004742CC
:10129000800E47420070004000200C490866FFF7AE
:1012A000D3F9054606E0FFF7CFF9401B022801D924
:1012B0000320EFE506480068C0F340600028F2D143
:1012C00001E00120E6E50020E4E5000000004742DF
:1012D0000038024070B504462546681EB0F1807F94
:1012E00001D301200FE0681E4FF0E02148610F217B
:1012F0004FF0FF3000F078F900204FF0E0218861D6
:1013000007200861002070BD70477047704710B516
:10131000044620680069C0F34000D8B12068C06866
:10132000C0F34000B0B16FF00200216808610120F5
:1013300020772068806900F0030018B12046FFF78D
:10134000E5FF05E0204600F0ADF8204600F0ABF8E0
:101350000020207720680069C0F38000D8B12068A1
:10136000C068C0F38000B0B16FF00400216808616C
:10137000022020772068806900F4407018B1204670
:10138000FFF7C4FF05E0204600F08CF8204600F08F
:101390008AF80020207720680069C0F3C000D8B127
:1013A0002068C068C0F3C000B0B16FF008002168C9
:1013B0000861042020772068C06900F0030018B19C
:1013C0002046FFF7A3FF05E0204600F06BF820461B
:1013D00000F069F80020207720680069C0F3001051
:1013E000D8B12068C068C0F30010B0B16FF0100031
:1013F00021680861082020772068C06900F44070E7
:1014000018B12046FFF782FF05E0204600F04AF8B9
:10141000204600F048F8002020772068006900F09E
:10142000010058B12068C06800F0010030B16FF0D1
:10143000010021680861204600F036F82068006944
:10144000C0F3C01058B12068C068C0F3C01030B1FC
:101450006FF08000216808612046FFF755FF206883
:101460000069C0F3801058B12068C068C0F38010D4
:1014700030B16FF0400021680861204600F028F884
:1014800020680069C0F3401058B12068C068C0F3FC
:10149000401030B16FF02000216808612046FFF74E
:1014A00034FF10BD70477047064A0168914207D16A
:1014B0000121054A1170054909681431034A116078
:1014C000704700000004004024000020300000208D
:1014D000704700BFFEE72DE9F04104460D46174670
:1014E0001E46DDF818801CE0701CD0B1FFF7ACF888
:1014F000A0EB0800B04200D89EB900202063202055
:1015000084F83D00002084F83E00206C40F020006C
:10151000206400BF002084F83C0000BF0120BDE82B
:10152000F081C5F3074001280AD120684069A9B2BB
:101530000840A9B2884201D101200BE0002009E057
:1015400020688069A9B20840A9B2884201D101206F
:1015500000E00020B842C7D00020E0E708B500BF97
:10156000002000900648006840F48050044908605C
:101570000846006800F48050009000BF00BF08BD1E
:101580003038024010B50020FEF794FE0121002003
:10159000FEF7E4FE10BD000010B50B480B490860D3
:1015A0000B484860002109488160C1604FF48041C8
:1015B0000161002141618161C1610162FFF74AF867
:1015C00008B1FEF71EFF10BD005C0040B80000200F
:1015D000A08601007047000002480068C0F30220A6
:1015E000704700000CED00E010B5002807DA0A078C
:1015F000140E054A00F00F031B1FD45403E00A0722
:10160000130E024A135410BD18ED00E000E400E090
:1016100010B5FFF763FA10BD00B593B014210EA802
:10162000FEF70CFE302102A8FEF708FE00BF0020E6
:1016300001902648006840F0805024490860084620
:10164000006800F08050019000BF00BF00BF002084
:1016500001901F48006820F4404040F400401C49BD
:1016600008600846006800F44040019000BF00BFD9
:101670000220029001200590102006900220089080
:101680000021099110210A914FF4A8710B910421B6
:101690000C9107210D9102A8FFF7F8FB08B1FEF7A6
:1016A000B0FE0F200E9002200F90002010904FF4FB
:1016B000805011900020129002210EA8FFF7B8FA76
:1016C00008B1FEF79EFE13B000BD00004038024096
:1016D000007000401448006840F47000124908602F
:1016E0001248006840F001001049086000200F49CE
:1016F000083108600D4800680D4908400B49086032
:101700000C48091D0860081F006820F48020091F8C
:101710000860002005490C3108604FF00060024964
:10172000803908607047000088ED00E00038024012
:10173000FFFFF6FE1030002410B50248FFF7E7FD6A
:1017400010BD00003400002002E008C8121F08C1CC
:10175000002AFAD170477047002001E001C1121F32
:10176000002AFBD170470000FFF7C4F9FFF754FFD0
:1017700000220E21501EFFF709FAFFF703FFFFF7C3
:10178000EDFEFFF709FF0BE04FF47A7303223D21D2
:101790000448FFF73BF8044908700A20FEF740FEB2
:1017A000F2E70000B80000202C00002020000020FC
:1017B00028000000000000000001020304060708E2
:1017C000090000000001020304000000EC170008FB
:1017D000000000203400000048170008201800080E
:1017E00034000020DC800000581700080000024090
:1017F00000080240E80300000024F400000000009C
:1018000010000000010000000000000000000000C7
:1018100000000000000000000000000000000000C8
:040000050800019559
:00000001FF
