:020000040800F2
:10000000F88E0020A901000865B200088D80000864
:10001000B5010008B7010008B901000800000000A0
:10002000000000000000000000000000BB0100080C
:100030004F52000800000000BF0100082DB6000864
:10004000C3010008C3010008C3010008C301000880
:10005000C3010008C3010008C3010008C301000870
:10006000C3010008C3010008C3010008C301000860
:10007000C3010008C3010008C3010008C301000850
:10008000C3010008C3010008C3010008000000000C
:10009000000000000000000000000000C301000894
:1000A000C3010008C3010008C3010008C301000820
:1000B000C301000855B70008C3010008C3010008C8
:1000C000C3010008C3010008C3010008C301000800
:1000D000C3010008C3010008C301000800000000BC
:1000E0006B520008C3010008C301000800000000B3
:1000F000000000000000000000000000C301000834
:1001000000000000C3010008C3010008C30100088B
:1001100000000000000000000000000000000000DF
:10012000C3010008C3010008C3010008C30100089F
:10013000C3010008000000000000000000000000F3
:10014000000000000000000000000000C3010008E3
:10015000C3010008C3010008C3010008C30100086F
:10016000C3010008C30100080000000000000000F7
:10017000000000000000000000000000000000007F
:1001800000000000C30100080000000000000000A3
:10019000C3010008DFF80CD000F078FB00480047EE
:1001A0000DE30008F88E0020064880470648004707
:1001B000FEE7FEE7FEE7FEE7FEE7FEE7FEE7FEE717
:1001C000FEE7FEE7F1B60008950100082DE9F05FB3
:1001D0000546002092469B468846064681464024B6
:1001E0001BE0284641464746224600F095F9534613
:1001F0005A46C01A914110D311461846224600F0C3
:100200007CF92D1A67EB01084F4622460120002198
:1002100000F073F917EB00094E41201EA4F1010410
:10022000DFDC484631462A464346BDE8F09F10B51C
:1002300040EA01040346A40703D009E010C9121FD5
:1002400010C3042AFAD203E011F8014B03F8014B62
:10025000521EF9D210BDD2B201E000F8012B491EA6
:10026000FBD270470022F6E710B513460A46044653
:100270001946FFF7F0FF204610BD2DE9FE4F81EA39
:10028000030404F0004421F0004100944FF0000BFF
:1002900023F0004350EA01045ED052EA03045BD02D
:1002A000C3F30A54C1F30A552C44A4F2F334019465
:1002B000A0FB0254C1F3130141F48011C3F31303F3
:1002C00043F4801301FB024400FB034E840A970AA7
:1002D00044EA815447EA8357A4FB076802958D0AD4
:1002E00005FB07854FEA932C04FB0C542705029D60
:1002F0004FEA065847EA1637B5EB08056EEB070CD0
:10030000870E920E47EA811742EA8312A7FB020189
:10031000B6EB0B0164EB00042B0D43EA0C335E18C3
:1003200044EB1C50DA465146E7FB0201C5F31304C7
:100330004FEA0B3343EA14534FEA0432019C43EA79
:100340000603A4F10C040294009CCDE900B400F073
:1003500057F903B0BDE8F08F00200146F9E72DE919
:10036000F04D81EA030404F0004B21F000451446EF
:100370004FF0000A23F0004150EA050220D054EA71
:1003800001021DD0C5F30A570246C5F31303C1F39A
:100390001300C1F30A5640F4801543F48013A7EB11
:1003A0000608101BD64608F2FD3873EB050002D391
:1003B00008F1010801E092185B41B8F1000F03DA7F
:1003C00000200146BDE8F08D00204FF48011064664
:1003D00084460EE0171B73EB050705D3121B63EB76
:1003E000050306434CEA010C49084FEA3000921815
:1003F0005B4150EA0107EDD152EA030012D082EAD4
:10040000040083EA0501084305D0101BAB4106D266
:100410000122002306E000224FF0004302E06FF0CB
:10042000010253101AEB06004CEB085110EB0A00C6
:1004300041EB0B01BDE8F04D00F0D3B80EB5C10F94
:1004400080EAE0700844CA07002140F233438DE897
:100450000E000A460B4600F0D3F803B000BD70B59D
:10046000C1F30A5201F000450024C1F3130140F228
:10047000FF3341F480119A4201DA002070BD40F24E
:1004800033439A42A2F2334203DC524200F044F872
:1004900000E090402C43F1D0404270BD00F000429B
:1004A00030F000400AD0C10D01F56071C0F31600B4
:1004B00042EA0151C208400711437047002001463B
:1004C000704701F0004330B421F0004150EA0102CE
:1004D00006D00A0DA2F56072C1F31301002A02DCF6
:1004E00030BC00207047440F44EAC104C100E0184A
:1004F00030BC00EBC25000F01FB8202A04DB203AC9
:1005000000FA02F1002070479140C2F1200320FA66
:1005100003F3194390407047202A04DB203A21FA64
:1005200002F00021704721FA02F3D040C2F120020C
:1005300091400843194670470029A8BF7047401CE6
:10054000490008BF20F00100704710B4B0FA80FCE9
:1005500000FA0CF050EA010404BF10BC704749B126
:10056000CCF1200421FA04F411FA0CF118BF012196
:1005700021430843A3EB0C01CB1D4FEA00614FEA76
:10058000102042BF002010BC704700EBC350104445
:100590000029A4BF10BC7047401C490008BF20F0D0
:1005A000010010BC704710B541000CD0C0F3C7511A
:1005B000962908DC7E2909DC06DB410204D000F024
:1005C000004040F07E5010BD002010BDC1F19604E7
:1005D000C4F1200100FA01F1E040FFF7ADFFA040B7
:1005E00010BD10B5141E73F1000408DA401C41F16F
:1005F000000192185B411A4301D120F0010010BDA7
:100600002DE9F04D92469B4611B1B1FA81F202E01C
:10061000B0FA80F220329046FFF76FFF04460F4693
:1006200040EA0A0041EA0B0153465A46084313D0F8
:10063000114653EA010019D0C8F140025046FFF7B5
:100640006BFF05460E46504659464246FFF755FF9A
:10065000084305D0012004E020463946BDE8F08D6E
:100660000020054346EAE0762C4337430A986305A9
:10067000E40AA0EB08000022FD0A44EA47540A30CD
:1006800002D500200146E9E7010510196941DDE9BD
:10069000084500196941BDE8F04DA2E72DE9FE4F7C
:1006A000804681EA0300C00F0C46009021F0004113
:1006B00023F00045B8EB0200A94105D2404621468F
:1006C00090461C460B46024623F00040104347D09C
:1006D000270DC7F30A00C3F30A510290401A019094
:1006E00040286BDAC3F3130040F4801B0098924655
:1006F00020B10023D2EB030A63EB0B0B01985946A0
:10070000C0F140025046FFF7F8FE06460D4650463F
:100710005946019A00F0CCF810EB08006141002422
:1007200087EA115284EAE7731A4340D0009A62B311
:10073000019A012A4FEA075215DC001B61EB020106
:100740004FF0004202EA0752CDE90042001C41F599
:10075000801132462B46FFF753FF03B0BDE8F08F00
:1007600040462146F9E7001B61EB0201001C41F500
:10077000801300185B412018A2F5001747EB030116
:1007800040EAD570B6196D4111E06D084FEA3606A2
:1007900045EAC0754FEA0752001B61EB0201001CDD
:1007A00041F5801149084FEA3000001951413246A5
:1007B0002B4603B0BDE8F04FFFF713BF00980122AE
:1007C00040000023D0EB020263EBE0730098214667
:1007D0004FEAE074B8EB000061EB0401E9E783F055
:1007E00000435BE781F0004158E72DE9F04D00231D
:1007F0001A461B1A8A4103DB00200146BDE8F08D32
:10080000C1F30A52C1F3130141F480154FF0000BFC
:10081000D10702D100186D41521E0027044640F254
:10082000FF11384601EB620A3E4680460246002030
:100830004FF48011FFF770FEC2197141BB1846EBEF
:100840000100B4EB030C75EB000C04D3E41A65EB68
:10085000000517460E46241908F101006D41804637
:100860003428E3DDF91946EB0600091BA84103D241
:100870004FF0FF32134601E0002213461BEB070046
:1008800046EB0A51BDE8F04DFFF7ABBE064C074DF5
:1008900006E0E06840F0010394E807009847103450
:1008A000AC42F6D3FFF77AFC3CE800085CE80008AD
:1008B000202A06DBCB17203A41FA02F043EAE07324
:1008C00006E041FA02F3D040C2F120029140084311
:1008D0001946704770B58C1810F8015B15F00703C6
:1008E00001D110F8013B2A1106D110F8012B03E0C9
:1008F00010F8016B01F8016B5B1EF9D12B0705D4D1
:100900000023521E0DD401F8013BFAE710F8013B19
:10091000CB1A921C03E013F8015B01F8015B521E35
:10092000F9D5A142D8D3002070BD0000000000001E
:100930002DE9F04FDFF8F8A32DED108BBAF8085031
:10094000DAF80C60BAF90240822DADF2246D40F263
:10095000A38105F17E07FFB24FF0820BDAF810C0D9
:1009600000230DF5047819B2CA000CEB0200013324
:100970001CF831E008F831E04244DBB2D0F802E084
:10098000C188C2F802E05B45D180ECD3822D86BFDE
:10099000A5F182039BB20023AAF80830EFB1DAF880
:1009A0001030791EC9B203F1080202EBC1014FF009
:1009B000000E00E0083293F81004B3F812C4B3F844
:1009C000147418709142B3F8160483F810E4A3F875
:1009D00002C09F80D8801346ECD1013D04FB156214
:1009E0000BF1FF319AF8E030089204FB01220991E3
:1009F0000792002B00F05481C94DDAED012A9AEDDF
:100A00002D3ADAED2A3A9AED314ADAED2B4A9AED8F
:100A1000355ADAED2C5A9FEDC96A019547F6FF7EEB
:100A2000CDE902E500230693CDF810E01F461846F5
:100A3000A94618F83040C300461C7A1C08EB030195
:100A4000002C00F09C80B1F90440B1F90250B1F9DA
:100A5000061007EE904A17B2019A07EE105AA2420A
:100A6000F8EEE77AB8BF2246F8EEC76A77EEE47A86
:100A70000192029A76EEE36AA24267EE847AA8BFF8
:100A8000224666EE836AA94567EEA77A07EE101A3A
:100A90000292039AB8BFA946AE45E6EEA67AA8BF71
:100AA000AE468A42B8EEC77AB8BF0A4637EE657AD4
:100AB0000392049A37EE866A8A4267EE057AA8BFE7
:100AC0000A4603280492A7EEA76A58DDA3F108009E
:100AD0004044A3F1200C183B4344C4440593B0F9AF
:100AE00002300B93059BBCF902200A92B3F9022055
:100AF00013460A9AAD1A1A460B9B9A1A02EB450244
:100B000007EE902AB0F90450BCF90420059B0A9521
:100B1000A41AB3F904500A9AB3F90630BCF906C016
:100B2000B0F90600521BF8EEE77A02EB4404F0EE4F
:100B3000E77A07EE104AFCEEE77AB8EEC77AF8EEED
:100B4000677AB0EEC77AC01AA1EB0C0177EE877A0C
:100B500000EB410107EE101AFCEEE77AB8EEC77A17
:100B6000F8EE677AB0EEC77A77EE277A069BFCEE4E
:100B7000E77A17EE902A934238BF1346069330B2B5
:100B800083453FF756AF002F00F0E880F7EE007A7C
:100B9000B9F5804F87EEA27A80F2AC801EF5804FC7
:100BA000C0F2A880019BB3F5804F80F2A380029A27
:100BB00012F5804FC0F29E800399B1F5804F80F20C
:100BC0009980049810F5804FC0F2948007EE907AD7
:100BD000F8EEE76A9A1AC6EE267AA9EB0E0E96454B
:100BE0007346A1EB0001B8BF13468B42B8BF0B465A
:100BF000DFED4C6AB1EEE76A07EE903A67EE266ADF
:100C0000F8EEE77A26EE226AF4EEE76AF1EE10FAE1
:100C100070D4DDED066ADFED445AF8EE666A66EEE2
:100C2000A22AF4EEE52AF1EE10FA63DCF1EE046A92
:100C300027EE267AB4EEE77AF1EE10FA3FDCF1EE19
:100C4000006A67EE266AF4EEE67AF1EE10FA40F3F7
:100C5000848507EE90EA37EE077AF8EEE77AF4EE4D
:100C6000C77AF1EE10FA40F3788507EE902AF8EE95
:100C7000E77AB4EEE77AF1EE10FA40F16E8507EE0E
:100C8000901AF8EEE77AB4EEE77AF1EE10FA4CBF7C
:100C900001230023019362E04DB1AB4600275DE6DE
:100CA000CAE93A33CAE93C33CAE93E33A4E6AAF8B2
:100CB00008500DF2246DBDEC108BBDE8F08F9AF852
:100CC000A430023B012BF4D8DFED187AB4EEE76ACA
:100CD000F1EE10FAEDDD00230121FF220798CAF89A
:100CE00060038AF8A4108AF8E0308AF824308AF881
:100CF000E220DEE79AF8A430023B012B40F20785A0
:100D00000799CAF860130022FF238AF8E0208AF8C6
:100D1000E2300DF2246DBDEC108BBDE8F08F00BF0A
:100D20000080FFFF0000024300007A4400004843B7
:100D3000740900200000C84200FF7F470000000047
:100D400000003CC29A99D93F3433234000007C42D2
:100D50000AD7233C6F12833A6666663F01975FEDC0
:100D60000B7A1FED0B7A9AF966339AF8651326EE23
:100D7000276AB4EEC76AF1EE10FA88BFB0EE476A90
:100D8000002BC0F23C84013393FBF1F201FB1232E1
:100D900052B214469AF864338AF8662301338B42C0
:100DA000A8BF0B4616EE100A8AF864330DF0AEFBAE
:100DB00007EE900AFCEEE77A0AEB440317EE900A7E
:100DC000DAF86043A3F8680334B1079B1A1B40F6B6
:100DD000B7339A427FF66DAFDDED077AB8EE67BAAA
:100DE0005FED247A2BEE27BA1BEE100A0DF08EFB76
:100DF000DAF8D8300AEE900A002B40F0DC839AF83B
:100E0000A4909AF864639AF865138E4200F0758492
:100E1000002707EE906AB5B2B8EEE76A1FED397A9F
:100E2000002D00F0118100220294F0EE476A41F299
:100E30005C2040F6B83C144607EB020E9EFBF1F333
:100E400001FB13E30AEB43030132B3F8683307EE07
:100E5000903AA3F5925E834298BFC31AAEF11C0E7E
:100E600088BF1FFA8EF3F8EEE77A98BF9BB203FBB8
:100E700003FE37EE277A07EE90EA634588BF631CCE
:100E8000F8EEE77A1FFA82FE88BFDCB2754576EE8F
:100E9000A76AD1D8C6EE867A06EB46063B2E0794A3
:100EA000029C5FED556AB1EEE78A28EE268A40F390
:100EB000D280B9F1000F38D0C7EE065A5FED607AE4
:100EC000E5EEA67AB0EE087AF0EEE77AF4EEC77AAD
:100ED000F1EE10FA00F13C86B1EE087AF4EEC77A32
:100EE000F1EE10FA07D51FED697AB4EEC78AF1EE7C
:100EF00010FA00F12D86B1EE057AF4EEC77AF1EE24
:100F000010FA00F12A86B2EE057AF4EEC77AF1EE15
:100F100010FA07D55FED747AB4EEE78AF1EE10FAB5
:100F200000F11B8601238AF8A430DAED018A5FED17
:100F3000797ADAF8E430BAF902609AF8E050B7EE5C
:100F4000007A87EE289ADDE9080103F5AB4201FB40
:100F500006067032B242F1EE009A69EE299A69EE05
:100F6000A77AFCEEE77A17EE901A89B2894654D236
:100F700044F6206296429AF8E1409AF9E2201ABFBC
:100F8000A6F59C46203E0026AC4202F1010200F08C
:100F9000AB83521B92FBF4F104FB1122002A17B21F
:100FA000BCBF121917B20FFA85FCBCF1000F31D08B
:100FB0009B1B002198B28E4605E0A3F8E02001318A
:100FC0000BB29C451ADD7A1892FBF4F304FB132351
:100FD000DBB204330AEBC303B3F8E020024412B2DD
:100FE000002AEADA05F1FF3EA3F8E020002D00F028
:100FF00081835FFA8EF54FF0010EE0E78AF8E0504A
:10100000BEF1000F06D0B0EE690A484601F0CCFFF1
:101010009AF8E050CAF8E4603346002D4DD09AF9B2
:10102000E2200AEBC202B2F9002102F59C5208321A
:101030001344089A934234D3019B002B40D10A2DCC
:101040003ED8002305932FE1B1EEC78A07955FEDE7
:10105000C07A28EE278AB9F1030F7FF466AFDAF879
:10106000A030002B3FF461AF07EE903AF8EE677ABC
:10107000B3EE0E7A7BEE676AF4EEC76AF1EE10FA11
:101080007FF753AF07EE104A5FEDCE6AB8EE477AAE
:1010900027EE267AF4EEC77AF1EE10FA3FF709AEA2
:1010A00043E70023CAE93A33CAE93C33CAE93E338D
:1010B000FF228AF8E0308AF8E220019B002BC0D0A2
:1010C00069EEA9BA5FEDDC6ACDF804B0B6EE007A3D
:1010D000F5EE007AB7EE08AA00236BEEA6BA29EE69
:1010E000079A68EEA78A29EE8AAA1C46059318F883
:1010F000341008EBC402A4B2002900F0CE80B2F98B
:101100000250B2F90460B2F9067007EE905AF8EE98
:10111000E77AF0EEE77AF4EEC97AF1EE10FA16D536
:1011200007EE906AF8EEE77AF0EEE77AB4EEE79A27
:10113000F1EE10FA0BDD07EE907AF8EEE77AF0EEBA
:10114000E77AB4EEE79AF1EE10FA00F3A6809AF887
:10115000E0B0BBF1000F00F01281BAF95A13BAF9EE
:101160005823BAF95C33891B01FB01F1521B02FBC6
:101170000212DB1B03FB032307EE903AF8EEE77A3B
:10118000F4EEE7BAF1EE10FA00F3878095FBF9F37D
:1011900009FB1353002BB8BF4B441BB207EE903A28
:1011A000F8EEE77A67EEA87A17EE900A0DF0AEF93E
:1011B00096FBF9F307EE900A09FB1363002BB8BF07
:1011C0004B44FCEEE77A1BB2CDED027A07EE903A83
:1011D000F8EEE77A9DF80820029267EEA87A17EEFB
:1011E000900A0DF093F997FBF9F307EE900A09FBCB
:1011F0001373002BB8BF4B44FCEEE77A1BB2CDED66
:10120000037A07EE903AF8EEE77A9DF80C20039205
:1012100067EEA87A17EE900A0DF078F907EE900ABB
:10122000FCEEE77ADAE93A23CDED047A9DF8101066
:10123000049102991F2940F2B681A1F120030121F6
:1012400001FA03F3134208BF0021039881F0010360
:101250001F280693DAE93C2340F29C81A0F1200389
:10126000012000FA03F3134214BF03460023049A3B
:101270001F2A83F0010C40F22981A2F1200E0120E7
:10128000DAF8FC2000FA0EFE1EEA020F00F0D6810A
:10129000069B5CEA030340F089840134019A24B27E
:1012A000A24223463FF723AF9AF8DC30059A1A434F
:1012B0008AF8DC20002A3FF4FCAC9AF8E030039373
:1012C000182B7FF6F6ACDAF8A0306BB107EE903A47
:1012D000F8EE677AB0EE007A3BEE67BAB4EEC7BAC2
:1012E000F1EE10FA3FF5E5ACDAE93A83002201931A
:1012F000DAF8FC30029311469AED01AADAF8F0E030
:101300001B92DAE93D9B104613461546CDE91C2297
:10131000CDE91E2220924FF0010C12E0029C002F1A
:1013200018BF0135002E18BF01331442EDB2DBB2F5
:1013300014BF01220022013110444029C0B200F044
:101340001982A1F120020CFA02F21F290CFA01F411
:1013500008EA02070EEA0206E0D8019A224218BF04
:10136000013509EA040218BFEDB2002A18BF0133A3
:101370001BEA040FDBB214BF01220022DBE7DAF81C
:10138000E4208AF8E2B04FF001018AF8E010BAF9DF
:101390000210002A40F03781089803FB0103CAF8C5
:1013A000E43095FBF9F309FB1353002BB8BF4B4412
:1013B0001BB207EE903AF8EEE77AAAF8002167EE42
:1013C000A87AAAF8025117EE900AAAF85853AAF878
:1013D0000461AAF85A63AAF80671AAF85C730DF0C2
:1013E00095F896FBF9F307EE900A09FB1366002EB9
:1013F000B8BF4E44FCEEE77A33B2CDED027A07EE89
:10140000903AF8EEE77A9DF8085067EEA87A17EE62
:10141000900A0DF07BF897FBF9F307EE900A09FBB1
:101420001377002FB8BF4F44FCEEE77A3BB2CDED07
:10143000027A07EE903AF8EEE77A9DF8086067EED8
:10144000A87A17EE900A0DF061F807EE900AFCEE0C
:10145000E77A1F2DCDED027A9DF8083040F2E48046
:10146000DAF8E810A5F12002012000FA02F222EADF
:1014700001024A40CAF8E8201F2E40F2CB80DAF879
:10148000F010A6F12002012000FA02F222EA010285
:101490004A40CAF8F0201F2B0CD9DAF8FC200121B1
:1014A000203B01FA03F323EA02035340CAF8FC305D
:1014B0000591F2E6DAF8F820012101FA03F323EAB4
:1014C00002035340CAF8F8300591E6E610464FF0A3
:1014D000010EDAF8F8200EFA00FE1EEA020F7FF481
:1014E000D7AE9AF9E2209AF8E1C0013206920029BB
:1014F00040F0AD80002B40F0AA80069B089893FB3B
:10150000FCF20CFB1232DAF8E430BAF802E0AAF886
:10151000585351B20BF101026245A0EB0303A8BF7F
:1015200062461EFB04300B1D0AEBC303D2B26245B8
:101530008AF8E020AAF85A63AAF85C738AF8E210E5
:10154000A3F8E250A3F8E460A3F8E670A3F8E00083
:1015500000F0F882029B1F2B40F2F480DAF8E820BA
:10156000203B012101FA03F323EA02035340CAF8A6
:10157000E830039B1F2B40F2DA80DAF8F020203BA2
:10158000012101FA03F323EA02035340CAF8F030C1
:10159000049B80E70246012000FA02F21A4214BFBF
:1015A0000346002363E60A46012101FA02F21A42C9
:1015B00008BF002149E607EE903AF8EE677A9FED02
:1015C000697A7AEEE77AFDEEE77AF8EEE77AF4EEFA
:1015D000C77AF1EE10FA00F381809FED637A9AF8F2
:1015E000A490F4EEC77AF1EE10FA40F38E8219F16E
:1015F000000918BF4FF001098AF8A49001E4002403
:101600002246FFF7C7BB089B11FB04F19A1A0A4454
:1016100012B2C6E6DAF8F4100122B24022EA010260
:101620004A40CAF8F42036E7DAF8EC100122AA4062
:1016300022EA01024A40CAF8EC201DE79AF9E220AA
:101640009AF8E1C00244069200293FF453AFE34503
:10165000069B00F06B82A3EB0B0292FBFCF30CFBEE
:101660001323002B0FFA83FEBCBF63440FFA83FEE3
:10167000002002E09B457FF640AF0EEB000292FB9C
:10168000FCF30CFB1323DBB204330AEBC30301307E
:10169000B3F9E210B3F9E420B3F9E630691AB21AEB
:1016A00006EE901A07EE102AFB1A07EE903AF8EEB3
:1016B000E66AB8EEC77AF0EEE66AB0EEC77AF8EE00
:1016C000E77A36EE877AF0EEE77A77EE277AC3B2DA
:1016D000B4EEE7AAF1EE10FACCDDDEE500238AF8DD
:1016E000A4309946FFF78DBB92FBF5F705FB172257
:1016F00017B258E44FF0010E61E49AF966330133F2
:1017000093FBF6F706FB17339FB2FFF782BBDFEDC3
:10171000177AB4EEE76AF1EE10FA7FF7F1AA012228
:1017200000238AF8A4208AF82430FFF7E9BADAF80F
:10173000F420012101FA03F323EA02035340CAF81B
:10174000F43025E7DAF8EC20012101FA03F323EA6B
:1017500002035340CAF8EC300BE700230193FFF774
:10176000FEBA00BF00F0524900C0284800004843BC
:1017700000003442052D40F2E081052B40F2DD816E
:10178000052840F2DA819AF8E1B0039A9AF9E2501A
:101790005A4505F1010300F003829A1A92FBFBF30C
:1017A0000BFB1323002B1CB2BCBF5B441CB204F127
:1017B0001D030AEBC3030026B3F91A10B3F91C206A
:1017C000B3F91E308E461F46944604EB060898FB7C
:1017D000FBF00BFB1080C0B21D300AEBC0000136DD
:1017E000B0F91A90B0F91C80B0F91E004945B8BF95
:1017F0004946CE45A8BFCE464245B8BF4246C4453D
:10180000A8BFC4468342B8BF03468742A8BF074665
:1018100003985FFA86F94845D7D8F7EE007AC7EE05
:101820008A7A9AF82400A1EB0E01A2EB0C02DB1BD2
:1018300009B212B21BB25FED325ACDED047A67EEF7
:10184000A55A002840F0AA819AF8A400B0FA80F0C6
:10185000400907EE901AB0EE086A25EE866AF8EEA7
:10186000E76AF4EEC66AF1EE10FA00F37B8107EE48
:10187000902AB8EEE77AB4EEC76AF1EE10FA00F1FA
:10188000718107EE903AF8EEE77AB4EEE76AF1EE8E
:1018900010FA00F16781002800F09281F4EEE65A18
:1018A000F1EE10FA00F38981F4EEC75AF1EE10FA66
:1018B00000F38381F4EEE75AF1EE10FACCBF012376
:1018C00000230193B7EE026A66EE866AF4EEE65AEA
:1018D000F1EE10FA00F3318127EE067AF4EEC75AE2
:1018E000F1EE10FA00F3298167EE867AF4EEE75AFA
:1018F000F1EE10FA00F3218100234FFA84F808F189
:1019000001091E469E46012708EB030109EB03026D
:1019100091FBFBF30BFB13135CB2002CB8BF5B44D1
:1019200092FBFBF10BFB1122B8BF5CB252B2043246
:1019300004340AEBC4010AEBC203B1F9E200B3F9C3
:10194000E230191A00299BB280B2B4BFC31A1B1A25
:101950000AEBC40118B20AEBC203B1F9E410B3F9FF
:10196000E4305D1A002D9BB289B2B4BFCB1A5B1A6A
:101970000AEBC4050AEBC2010AEBC4040AEBC2027B
:10198000B1F9E610B5F9E650B2F8E020B4F8E0405D
:10199000A1EB050C121B89B2BCF1000FADB212B263
:1019A000B4BF691A491B002A1BB209B21EDD0344E9
:1019B0000B444FF47A7101FB03F307EE903A07EE04
:1019C000102AF8EEE77AB8EEC77A67EE8A7A0EF157
:1019D000010EC7EE876A5FFA8EFEFDEEE67A17EE1D
:1019E000903A1BB2642BC4BF0136F6B23B46039952
:1019F0000137FAB2914287D8BEEB860F80F29D8004
:101A00009AF8A430023B012B00F21181BF4D002453
:101A10000EAF55F8040B0CF079FD07EE900AFDEEC1
:101A2000E77A17EE900A27F814000134032CF0D15E
:101A30000CAB0DAAB0EE4A0AB549384603F0CEF811
:101A40009DED0C7ADFEDB37AFCEEEA6AB4EEE77A4C
:101A5000F1EE10FACDED026A0FD59FEDAF7ADDED14
:101A60000D7A77EEC77AB0EE0C7AF0EEE77AF4EE04
:101A7000C77AF1EE10FA00F1DF8000233B60BB80F3
:101A80009AF8E0409AF8E1509AF9E230AC4203F15A
:101A9000010900F03581A9EB040292FBF5F305FB87
:101AA0001323002B19B2BCBF5B1919B2DFED9E8A5C
:101AB0000022F0EE689AB0EE689AD3B29C4201EB35
:101AC000020040F2C58090FBF5F305FB1303DBB287
:101AD00004330AEBC3030132B3F9E20006EE900AC5
:101AE000B3F9E400B3F9E63007EE100A07EE903AD6
:101AF000F8EEE66AB8EEC77AF8EEE77A39EE269A9B
:101B000079EE879A78EEA78AD7E79FED847AF4EE8C
:101B1000C77AF1EE10FA7FF774A9B9F1020F28BF66
:101B20004FF002098AF8A490FFF76BB993FBFBFE14
:101B30000BFB1E3E0FFA8EFE9AE500238AF8DC307E
:101B4000FFF7B7B8B0EE690A484601F02DFA01E593
:101B500003238AF8A430FFF782BA02238AF8A4305C
:101B6000FFF7E3B90AEBC505DAF8E420B5F900316F
:101B7000DAF8601313449942DFD2DAF8D8104FF440
:101B80007A7303FB01F36433934238BF1346002298
:101B9000CAF860338AF8DC20FFF78BB8002058E6DB
:101BA00093FBF2F402FB14331CB200E69AF9E22034
:101BB0009AF8E1C0531C069349E50123019381E69D
:101BC000DAED314A9AED2D6A9AED355A9FED544A75
:101BD00036EE246AF7EE024A36EE056AB7EE005A90
:101BE00026EE046AB4EEE46AF1EE10FA88BFB0EEB5
:101BF000646AB4EEC56AF1EE10FAB8BFB0EE456A99
:101C000066EE866AF4EEE65AF1EE10FA95DC27EEFF
:101C1000067AF4EEC75AF1EE10FA8EDC67EE867A99
:101C2000F4EEE75AF1EE10FA87DC019064E6FCEE80
:101C3000EA7ACDED027A23E700287FF41EAF029BFB
:101C40008AF8A440CAF8A0308AF8DC00FFF731B85F
:101C500007EE904AB8EEE77AF7EE006AC6EE877AAA
:101C60000022489249924A924B929FED2F7A29EE98
:101C7000279A69EEA79A68EEA78A8DED129ACDEDA4
:101C8000139ACDED148AB0EE475AF0EE477AF0EE93
:101C9000474AB0EE474AF0EE47AAD3B29C4201EB66
:101CA000020045D990FBF5F305FB1303DBB20433C7
:101CB0000AEBC3030132B3F9E20005EE900AB3F96F
:101CC000E400B3F9E63006EE100A06EE903AF8EEBC
:101CD000E55AB8EEC66AF8EEE66A75EEC95A36EE0F
:101CE000696A76EEE86AE5EEA5AAA5EE864AE6EE12
:101CF000067AE5EEA64AA6EE265AA6EEA67ACCE726
:101D000099FBF4F104FB119109B2CFE61C0A002003
:101D1000280A00209A99D93F00003C4200F052471F
:101D2000ABAAAA3EABAA2A3E00000000920A0640D7
:101D300064EEA46ACDED42AAE4EE046A8DED434A56
:101D4000E5EE056ACDED444AF5EE406AF1EE10FA93
:101D5000CDED457A8DED465A8DED477A00F0C08085
:101D600037EE87BA1FED126A5FED125A3BEE2ABAC0
:101D7000B0EE005A2BEE06BAB7EE006A77EECB7AD9
:101D80007AEECBAA67EEA77A37EE4B7AEAEEAA7A1A
:101D90004FF0000E71460DF5D07BE6EE857AE7EE4A
:101DA000077A67EEA57AF1EEE7BA86EE2B7A01F1B3
:101DB000010C01FB0CF3022293FBF2F3AEEB0303E5
:101DC000DBB25FFA81F803930C2303FB01B14646B3
:101DD0000020039BC2B21344DBB2904542AA02EB3F
:101DE000830200F10107059200FB07F200F26C810B
:101DF000059AD2ED007A00F05F8142AA02EB8303DC
:101E0000D3ED007A67EE877AC1ED007A0336032FAF
:101E1000F6B201F104013846DBD161460EF1030E42
:101E200003295FFA8EFEC2D1DBED084A9BED036AFF
:101E30009BED054ADBED075A9BED067A9BED045AB4
:101E4000DBED013A66EE647A65EEC46AE4EE077A89
:101E5000E5EE246A27EE457A67EEA37ADBED004AC9
:101E60009BED025AA5EE867AE4EEA67AF6EE006ABB
:101E7000E5EE077ABFEE007A67EEA67AF4EEC77A4F
:101E8000F1EE10FA40F21581B7EE007AF4EEC77A5F
:101E9000F1EE10FAC0F202811FED5DCA1CEE100ACD
:101EA0000BF038FB5FED5F7A7CEE277A07EE100AC5
:101EB0007BEEABBA17EE900AF0EE4BAAEBEE87AAD8
:101EC0000BF028FB06EE900AB0EE4B7AF0EE087AA3
:101ED000ABEEA67AF0EE6A6ADBEE276A76EEC77A98
:101EE000F0EEE77AF0EEEAAAF4EEEA7AF1EE10FA12
:101EF000B0EEC77AB4BFF0EE6A6AF0EE676AB4EE8D
:101F0000E67A88BFF0EE6A7AF1EE10FAF4EEC77A5C
:101F1000A8BFF0EE476AF1EE10FA88BFF0EE477AFC
:101F2000B2EE0E7A67EE877AF4EEE76AF1EE10FA17
:101F300007DD0023029ACAF8A0208AF8DC30FEF7F9
:101F4000B8BE002310AA45934693479348934993FC
:101F50004A934B937D93809382938E4B136040F210
:101F600002210123AC429180937100F00D81A9EB15
:101F7000040191FBF5F305FB1313002B19B2BCBF51
:101F80005B1919B2DFED867A0020CDED037AF0EE11
:101F9000672AB0EE672AF0EE671AB0EE671AF0EE25
:101FA000670AB0EE670AF0EE67AAB0EE67BAF0EE25
:101FB00067BAB0EE67CAF0EE67CAB0EE67DAF0EE65
:101FC00067DAB0EE674AF0EE673AB0EE673AB0EE25
:101FD00067EAF0EE67EAB0EE67FAC3B29C4201EB43
:101FE000000677D996FBF5F305FB1363DBB20433E8
:101FF0000AEBC3030130B3F9E26006EE906AB3F96D
:10200000E460B3F9E63007EE106A06EE103AF8EE37
:10201000E66AB8EEC77AB8EEC66A76EEC96A36EEF8
:10202000686A37EE697A66EEA64A27EE075A66EEC8
:10203000065A66EE87FAA6EEA4CAE7EE24BAA6EE22
:1020400024BAE6EE85AAA7EE050AE6EE050AA6EE94
:10205000A51AE7EE251A66EE866A27EE067AA6EE40
:10206000252A9DED036AA6EEA6DA76EE266AA4EE90
:10207000A4FAE5EE05EAA5EEA5EAEFEEAFDAE7EEA3
:1020800007CA33EE243A73EE853A34EE254A77EEEA
:10209000AF7ACDED036A72EE872A9EE717EE900ABB
:1020A0000BF094F99FED3CCA07EE900A27EE8CCA1C
:1020B000F4E69FED3ACAF1E677EECB7A471C67EE7D
:1020C000877AC1ED007AA1E6022392FBF3F3F31ABB
:1020D000DBB292E607EE104AB8EE477A0DF5D07BF8
:1020E0008BED1B7A9DED037A8BED00FACBED07EAC1
:1020F0008BED0DEA8BED123ACBED163A8BED194ACA
:10210000CBED01DA8BED02DACBED08CA8BED03CA19
:10211000CBED04BA8BED05BACBED09AA8BED0A0A1B
:10212000CBED0B0A8BED0E1ACBED0F1A8BED102AAF
:10213000CBED172A8BED147ACBED137A8BED063AA3
:10214000CBED0C3A8BED114A00230224581C00FB06
:1021500003F1D65C91FBF4F1C1EBC3010BEB810100
:102160000746D35C91ED007A13FB06F307EE903A35
:10217000F8EEE77AC5B267EE877A072D0346E1EC01
:10218000017A0FD00130ECE799FBF4F104FB1191D7
:1021900009B2F7E601010102ABAAAA3E920A863F04
:1021A00000000000072F3B46D0D14FF07C530022A7
:1021B00022932393259321922492269233A90323D9
:1021C00002245D1CDA00C3F1050005FB03F393FB59
:1021D000F4F35B4210441A4418440BEB820369AADF
:1021E00002EB8002A1F13006084653F8047B46F862
:1021F000047B9A4240F8307C00F10C00F5D1062DAA
:1022000001F110012B46DCD10DF5B0784022002100
:102210004046FEF729F85CAA60AB15A927A8CDE9CE
:102220001582179302F008F8DBED1B8AB7EE007AEF
:10223000C7EE287A00224CAC4FF00C0E4FF002098A
:10224000C8ED0F7A05940EFB024108EB021500233E
:10225000C3EBC306581C00FB03F35FED2F7A93FB1F
:10226000F9F3F31A9E000023F71805EB030C5F4403
:1022700097ED037ADCED006A0433102BE6EE877AE3
:10228000F2D10328E1EC017A0346E1D10132042ABC
:10229000D8D10DF1C009CE460022C2EBC203551CB5
:1022A00005FB02F1D81C022691FBF6F699186FF097
:1022B000030303FB02F376420C33304431440693AC
:1022C00004EB820303930BEB800089000023039A45
:1022D0005FED4D7AD718064600224FF00C0C0CFB30
:1022E000027C9CED007AF6EC016A0132042AE6EEEB
:1022F000877AF2D1CA185A4492ED007A03EB43026E
:1023000077EE677A0EEB03067244C6ED007AC2EDF3
:10231000007A069A04339A42D9D1032D0EF1100E99
:102320002A46BAD10026CDF82CB0711C06EB460324
:10233000022006FB01F292FBF0F29B1A8340089305
:10234000F3B2069339AA0C2303FB062303934FF041
:10235000000B09EB0B035FED6E7A0A93002000EB94
:102360004003089F3344099307EB800721AB1F44C8
:102370000A9B4FF00C0C0CFB003E069B9EED007A76
:102380005FFA80FC421C634500FB02F500F26C859D
:10239000D7ED006AE6EE877A032A1046DFD1039B69
:1023A0000BF1040BE3EC017ABBF10C0F0393D0D1DA
:1023B00003290E46B9D10A4639A84946DDF82CB0A2
:1023C00001F0F2FD18AA494639A802F00DF89DED7A
:1023D000187ADDED197AB4EEE77AF1EE10FA58BF0B
:1023E000F0EE477A9DED1A7AF4EE477A54BF002357
:1023F0000123F1EE10FA48BF022309EB83010A46DC
:102400000868C9689269439105994492429045AB26
:1024100004F13002D1ED017A9DED435AD1ED005A1D
:102420009DED426AD1ED026A9DED447A67EE857AB0
:102430000C31E5EE867A9142E6EE877AF1EE677A24
:10244000E3EC017AE6D1DDED447AF5EEC07AF1EE07
:1024500010FA00F1178542AB1FEDAF7A0393002508
:1024600005F1010EC5EBC50302210EFB05F292FB3F
:10247000F1F29B1A8B4006935FEDB77AEBB20593AE
:102480000DF5847C0021C1EBC1032B440893069E0B
:10249000059BFCEC016ACFB24A1C06EB8106BB42ED
:1024A00001FB02F05E4400F2F98496ED006AE6EE6C
:1024B000267A072A1146E6D1039B7546F3EC016A9A
:1024C000072D0393A6EEA77ACAD1C7EE287A002378
:1024D0004FAE52ADC8F80430C8F80830C8F80C3018
:1024E000C8F81430C8F81830C8F81C30429F439A16
:1024F000C9F8085049469DED483A9DED474ADDED43
:10250000464ADDED453A4693B1EEE77A4593479367
:102510004046449BC8F80070C9E90046C8F810203E
:10252000C8F82030F5EE007AB1EEC79A8DED4B3A3F
:102530008DED4A4A29EE279ACDED494ACDED483A2C
:1025400001F07AFE00283FF4F4AC94ED046A94EDB7
:10255000032AD4ED016AD4ED002A94ED055AD4ED96
:10256000025A94ED077AD4ED067AC9F8004024EEB9
:10257000866A64EEA66AA2EE236A03225946E3EE57
:10258000A26A4046C9F80460A4EE056AC9F808507A
:10259000E4EE256A24EE877AB1EE466AA7EEA37AC6
:1025A00066EE247AF1EE666A94ED085ADFEDE65A9B
:1025B000CDED276AE6EEA37AA4EE057A77EE837A6C
:1025C000B1EE477AE7EE047A8DED286AF0EEE77A0D
:1025D000F1EEE79A8DED297A6AEE297AC5EEA78A9F
:1025E00001F0E2FC39AA5946404601F0FDFEDDED5E
:1025F000396AF5EEC06AF1EE10FA00F16F84DDED94
:102600003A7AF5EEC07AF1EE10FA3FF592ACDDEDD4
:102610003B7AF5EEC07AF1EE10FA3FF58AAC3CAAAF
:1026200039AB93ED007AF1EEC77AE3EC017A93428D
:10263000F7D100234FF0000859F823209F003A44B7
:10264000584619460BF10C06DFEDC06AC2F800804F
:1026500086465D460DF1E40CF5EC017ABCEC017A9E
:10266000BEEC016A67EE277AAE42E6EE276AC2ED5B
:10267000006AF1D159F8215001315FFA81FC3D44E3
:10268000BCF1030F02F1040200F10C00C5ED006A79
:10269000DAD10133032BB346CED194ED004AD4ED09
:1026A000044A94ED085ADFEDB20AD4ED031A94ED12
:1026B000067A28EE844A68EEA44A28EE855A74EE1B
:1026C000245AB7EE002AB4EEE44A75EE855AF7EEC6
:1026D000047AF1EE10FA34EE426A34EEC21A8CBF7C
:1026E000F0EE642AF0EE442A65EEA05A74EEE76A32
:1026F00074EE670AB0EEC63AB4EEE25AB0EEC11A12
:10270000F1EE10FAF0EEE66AB4EEC31AF0EEE00A6B
:10271000C9EE293A4FF000036360A360636135EEB0
:10272000676A98BFF0EE452AF1EE10FAF4EEE06A1F
:10273000B8BFB0EE431A74EEE57AF1EE10FA34EE5B
:10274000653AB8BFF0EE606AB0EEC66AB4EEE66A0B
:10275000B0EEC33AF0EEE77AF1EE10FAF4EEC37A97
:10276000B8BFB0EE666AF1EE10FA75EE656AB8BFF2
:10277000F0EE437A35EE423AF0EEE66AF4EEE76ABE
:10278000B0EEC33AF1EE10FAB4EEC13AB8BFF0EED3
:10279000676A84ED004AF1EE10FAD4ED077AC4EDD1
:1027A000044A28EEA14ADFED6A1A84ED085AB8BF40
:1027B000B0EE413A28EE877A68EEA77AB4EEE13AB5
:1027C000F1EE10FA32EE639A84ED034A84ED067A54
:1027D000C4ED077A40F1A6839FED5E5AF4EEC56A18
:1027E000F1EE10FA40F19E839FED5B5AB4EEC56A9C
:1027F000F1EE10FA2FD59FED596A25EE866AF4EEB8
:10280000C66AF1EE10FA26D50123B0EEC77AB0EE13
:10281000C44AB4EEC47AF1EE10FAB8BFB0EE447A0E
:10282000F0EEE77ADFED4E6AF4EEC77AF1EE10FAD9
:10283000F4EEE62AB8BFF0EE477AF1EE10FA40F374
:1028400085839FED487A65EE875AF4EEE75AF1EEFC
:1028500010FA40F37B83F6EE007AF4EEE73AF1EEFD
:1028600010FA3FF766AB0EAFDFED448A27AE0DF1ED
:10287000480B4FF00008B9460C2303FB08474DAB4B
:1028800003EB0813254603933868FDF707FE2CA3D6
:10289000D3E90023FDF7F1FCFDF7E1FD07EE900A17
:1028A000F8EEE77A039B67EEA87AE7EC017ABB4281
:1028B000EAD1B6EC017AFBEC017A77EE277A17EED3
:1028C000900A0BF023FE07EE900AFDEEE77A17EE72
:1028D000900A29F8180008F10108B8F1030FCBD1CC
:1028E000E168A069029BE669CAF8A0306160A06057
:1028F000B0EE4A0A0CAB0DAA214648464F46666127
:1029000002F06CF9002850D1DDED0D7A9FED0E6AD2
:10291000DFED0F6A86EE277AF7EE007A77EE677AB8
:10292000F0EEE77AF4EEE67AF1EE10FA3DD5DFED5F
:102930000E6AF4EEE67AF1EE10FA36DD55AB1FE0E2
:102940000000000080842E4100003C420000000096
:102950003333B33E9A99993E3333333FCDCC4C3E1B
:10296000CDCCCC3E9A99193FCDCCCC3D0AD7233C57
:10297000ABAAAA3E5655054200007A44BD378635BB
:1029800095ED006AD5ED016AD5ED027A26EE076A6B
:1029900066EE876A67EE877A85ED006AC5ED016AA3
:1029A000C5ED027A0C359D42EAD19AF8E0501FED50
:1029B000116A9DED0C7AC5EB05135B0007EE903AAA
:1029C00006EE900AF8EEE77AF8EEE66A67EE867AA7
:1029D000F4EEE76AF1EE10FA00F3BC82F1EE047A4D
:1029E000B4EEE77AF1EE10FA40F3D6829AF824803A
:1029F000B8FA88F84FEA5818D4ED045AD4ED007AA2
:102A000094ED086A5FED266AD4ED038A94ED06AA78
:102A1000DAF8A0601B9677EEA57ADDED045AD4EDC6
:102A2000079A25EE877A77EE867A87EE097A27EE7F
:102A3000A69A17EE100A0BF069FDB0EECA7AF0EE16
:102A4000E87A77EE877AB0EEE97A77EE877A1FED4B
:102A5000377A67EE877A07EE100AC7EE897ABCEEFE
:102A6000C77A17EE900A17EE103A8DF870300BF017
:102A70004DFD07EE900AFCEEE77A1FED417A17EE66
:102A8000900A0DF1760200238DF8710004EB03111A
:102A9000D1ED007A37F8131022F8041C67EE877A1C
:102AA0000133FCEEE77A032B17EE901A22F8021F8F
:102AB000ECD1019B8BB19DED047AF1EE047A67EEC7
:102AC000277A17EE900A0BF021FD07EE900AFCEE34
:102AD000E77A17EE900A8DF8700000238AF8DC3050
:102AE000B8F1000F3EF4E5A89DF870309AED01EAC8
:102AF0000BEE103A9AF82430B8EECBBA2BEE0EBAA1
:102B000043B9B4EECB8AF1EE10FA03D5079B092B3B
:102B10007EF6CFA8BDF97230BDF878001FED69DAF6
:102B200009EE903AF8EEE99A00238AF8A530CAED4A
:102B30002A9AFDF783FC0022DF4BFDF79EFBFDF791
:102B4000C0FCBDF9743007EE900A09EE103A67EE4A
:102B50008DAAB8EEC99ABDF87A00CAED2DAA8AED01
:102B60002B9AFDF76BFC0022D34BFDF786FBFDF79C
:102B7000A8FCBDF9763007EE900A08EE903A27EEF1
:102B80008DAAF8EEE88ABDF87C008AED31AACAED7C
:102B90002C8AFDF753FC0022C74BFDF76EFBFDF7B7
:102BA00090FC07EE900A27EE8DDAF0EE007AB4EE94
:102BB000E7BAF1EE10FA8AED35DA40F1CE8103235F
:102BC0008AF8A4309AF8E1809AF9E230CAF8D8601D
:102BD0000021FF22A84503F101038AF864138AF853
:102BE000662300F0D2815B1B93FBF8F208FB1233E3
:102BF000002B0FFA83F9BCBF43440FFA83F99AF80C
:102C00006573002D00F0BE819FEDAC8ADAED2EDAFF
:102C1000DAED2FCA9AED30CADAED32BA9AED34BA4B
:102C200000262EEE088A33464FF0FF3403EB0902EC
:102C300092FBF8F308FB1323DBB21D330AEBC3034B
:102C40000134B3F91E2007EE902AB3F91C20B3F922
:102C50001A30F8EEE77A07EE102A77EEE87AB8EE47
:102C6000C77A06EE903A94FBF7F3FDEEE77A37EE7B
:102C7000497A17EE902AF8EEE66ABDEEC77A12B2EC
:102C800076EEE96A07EE902A17EE102AFDEEE66A64
:102C900012B207EE102A16EE902AF8EEE77A12B278
:102CA000B8EEC77A06EE902A67EEAC5AF8EEE66AFE
:102CB00027EEAB5AE7EE2D5A07FB134464B2A6EE9B
:102CC0008C5A013636B227EE0B6AFDEEE55AA6EEB7
:102CD000AD6A27EE0A7A66EEAA6A15EE902AFDEE34
:102CE000E66AFDEEC55ABDEEC77A6DEE277A16EE9E
:102CF000903A17EE100A15EE901AFDEEC66AFDEE38
:102D0000E77A1A44014416EE903A17EE900A11FB46
:102D100001F1034412B202FB02121BB203FB0323B4
:102D200007EE903AF8EEE77AB1EEE77A67EE087AC6
:102D300017EE900A0BF0EAFB07EE900AFCEEE77A3A
:102D40000AEB440317EE900AAE42A3F8680322464A
:102D50003346FFF66BAF8AF86643BD42294628BF6B
:102D60003946BD428AF8641380F0058100248EB292
:102D700000293DF49EAF9FED527A0020F0EE476AA5
:102D800041F25C25221892FBF7F307FB13230AEBB1
:102D900043030130B3F8683307EE903AA3F592523B
:102DA000AB4298BFEB1AA2F11C02F8EEE77A8CBF97
:102DB00093B29BB203FB03F337EE277A07EE903A08
:102DC00083B2F8EEE77A9E4276EEA76ADAD807EE8B
:102DD000901AF8EEE77A01EB410186EEA76A3B29EB
:102DE000F1EEC66A7DF765AF87EE276A9FED357A0B
:102DF000DFED357AE6EE077AB0EE086AF0EEE77AB4
:102E0000F4EEC67AF1EE10FA00F1B380B1EE086A82
:102E1000F4EEC67AF1EE10FA26EE877A07D5DFEDEA
:102E20002B6AB4EEE67AF1EE10FA00F1A280F1EE30
:102E3000056AF4EEE67AF1EE10FA00F1B280F2EEF5
:102E4000056AF4EEE67AF1EE10FA40F1A880DFEDC3
:102E5000207AB4EEE77AF1EE10FA4CBF0223012398
:102E60008AF8A430FDF725BF022395FBF3F0099BF8
:102E70001B1A21A800EB8303D3ED006AE6EE877AE4
:102E8000FFF78ABA42AB49AAD3ED007AF1EE677A2E
:102E9000E3EC017A9342F7D1FFF7DDBA022390FB0E
:102EA000F3F1089B5B1A0BEB830393ED006AE6EEEC
:102EB000267AFFF7FEBA00BF00408F400000C842EC
:102EC000000000000AD7233C00003CC29A99D93F79
:102ED000343323403333333FCDCC4C3E9DED3A7AEF
:102EE000B5EEC07AF1EE10FA7FF523A8DDED3B7A5E
:102EF000F5EEC07AF1EE10FA7FF51BA8F5EEC06A88
:102F0000B1EE477AF1EE677AB1EE666AF1EE10FA49
:102F10008DED3A7ACDED3B7A8DED396A7FF76FAB67
:102F2000FFF707B81FED155AB4EEC56AF1EE10FAB7
:102F30007EF5FFAF1FED186A25EE866AF4EEC66ACD
:102F4000F1EE10FA7EF5F5AF00235EE4002B3EF4BF
:102F5000F0AF80E44FF000084EE5F0EE0C7AB4EEEE
:102F6000E7BAF1EE10FA4CBF022301238AF8A4302D
:102F700028E6032374E7013292FBF1F401FB1422EB
:102F800094B2F4E64FF0FF32E7E693FBF5F905FB68
:102F900019330FFA83F932E64FF001082CE50123CB
:102FA0005EE702235CE700BF2DE9F04F804D2DED79
:102FB000028B95F8E02095F8E18095F9E21089B050
:102FC00000234245019201F10101C5E93A33C5E907
:102FD0003C33C5E93E3300F0E380891A91FBF8F3F6
:102FE00008FB13110BB200290793C0F2D580019B97
:102FF000002B00F0CC800026F7EE007A814687EEA9
:10300000808ACDE90266CDE904660696B3460127BB
:1030100024E0203C07FA04F424EA0B04BAF11F0F61
:103020008BEA040B40F28B80059AAAF1200107FA83
:1030300001F121EA02014A401F2B059240F28980EA
:10304000039A203B07FA03F323EA020353400136B5
:10305000019A0393F3B29A4240F28880079B991930
:1030600091FBF8F308FB1313DBB203F1040A05EB41
:10307000CA01B1F9E20090FBF9F109FB1101002945
:10308000B8BF49440BB207EE903AF8EEE77A67EE24
:10309000887A17EE900A0BF039FA05EBCA0107EEB1
:1030A000900AB1F9E40090FBF9F109FB1101002944
:1030B000B8BF4944FCEEE77A0BB2CDED007A07EEDB
:1030C000903AF8EEE77A9DF8004067EE887A17EEBE
:1030D000900A0BF01BFA05EBCA0307EE900AB3F94E
:1030E000E61091FBF9F309FB1313002BB8BF4B4417
:1030F000FCEEE77A1BB2CDED007A07EE903AF8EEDF
:10310000E77A9DF800A067EE887A17EE900A0BF038
:10311000FDF907EE900AFCEEE77A1F2CCDED007A60
:103120009DF800303FF675AF069A07FA04F424EADA
:1031300002046240BAF11F0F06923FF675AF049A7F
:1031400007FA0AF121EA02014A401F2B04923FF6D6
:1031500077AF029A07FA03F323EA020353400136DA
:10316000019A0293F3B29A423FF678AF069BC5F8F4
:10317000EC30059BC5F8F030049BC5F8F430039B98
:10318000C5F8FC30029BC5F8E8B0C5F8F83009B0C6
:10319000BDEC028BBDE8F08F41440BB2079326E7EC
:1031A00091FBF2F302FB13110BB207931FE700BF71
:1031B000740900200F4B1B780BB91846704770B488
:1031C0000D4E05460FCE8BB001AC0FC4336824F80A
:1031D000023B1B0C237001AC0FCC2688EB60A4785B
:1031E0002860122318466960AA602E82AC740BB066
:1031F00070BC70475409002018E8000829492A4A81
:103200000B6810B423F0010301240B601146146015
:10321000642301E0013B09D00A68002AFAD1234B5C
:10322000234A1A601A68234B9A4207D0224B234A3A
:103230001B681B0C1B04934200D0FEE7D0ED006A14
:103240001F48204AF7EE007AF1EE005A85EEA67A82
:103250000146012301F8043B00F11004137300231D
:1032600043600361C1E90133C4E9013387EEA66A13
:10327000C2E90533C2E90A33C2E90D33136153626F
:10328000D3635DF8044BC2ED077AC2ED087AC2ED54
:103290000C7AC2ED107A82ED026A82ED007A82ED3C
:1032A000017A7047002000E0083002400030024000
:1032B000C2A507F4CDB5E8B5F8070010000055AA7F
:1032C00054090020FC0100202DE9F04F2DED108B5A
:1032D000044C23789DB03BB91DB0BDEC108BBDE80C
:1032E000F08F00BF5409002083460D460068DBF8CC
:1032F0000410DBF80820DFF8DCA502AF3B4607C36B
:103300009DED03BADDED02BADDED049A6BEE0B7AAA
:103310005B46EBEEAB7A53F80C0F05AEE9EEA97AFB
:103320009A685968334607C317EE900AFDF7B6F856
:103330000BF0F4F8FDF7C5F89DED068A9DED059AB2
:10334000DDED078A68EE087A0AEE100AE9EE097ADE
:10335000B7EE00CAE8EEA87ACCEE0AAA17EE900AF9
:10336000FDF79CF80BF0DAF8FDF7ABF807EE900AE2
:10337000CCEE277A9AF80C306BEEAABA29EE279A8F
:1033800028EE278A68EEA78A69EEAA9A6BEE2A7A57
:103390008DED059A8DED068ACDED078ACDED02BA49
:1033A000CDED037ACDED049A002B40F00D827AEE3C
:1033B0004C6A9AED017A9AED005AD4ED042A94ED04
:1033C000053AD4ED063A94ED014AD4ED024AF0EE06
:1033D000E66A7CEE666AF5EE005A26EE876A27EE0C
:1033E000257A66EE856A25EE255AB4EEC67AF1EEA8
:1033F00010FAB4EEE65AB8BFB0EE467AF1EE10FA23
:10340000A8BFF0EE456A27EE099A27EE088A68EE13
:10341000878A26EEAB6A3CEE477A7CEE665A66EE09
:10342000A77A69EEA69AD4ED036AA7EE229AA7EED0
:10343000038AE7EE238AB0EE467AA5EE847AE5EEBB
:10344000A47AE5EEA69A84ED049A84ED058AC4ED8B
:10345000068A84ED017AC4ED027AC4ED039AF0EE97
:1034600047AA67EEA77A28EE088AE7EE077AA9EE60
:10347000098AE9EEA97AA8EEA88A17EE900AFDF764
:103480000DF80BF04BF8804618EE100A8946FDF750
:1034900005F80BF043F806460F4640464946FDF74F
:1034A00010F807EE900AF7EE00BA394630468BEE78
:1034B000A79AFDF706F807EE900ACBEEA77AD4EDAF
:1034C000046AD4ED038AD4ED025A94ED067A94EDA1
:1034D000056A67EEA66A69EE288A27EE877A69EEA2
:1034E0002AAA66EEE89A29EE259A67EE867AE7EE32
:1034F0002A9A29EE478A27EEEAAAA8EEA78A29EE99
:10350000A96AA9EE26AAA8EE086AC4ED057AAAEE71
:103510000A6A84ED067AC4ED046A16EE100AC4ED58
:10352000038AC4ED01AA84ED029AFCF7B7FF0AF002
:10353000F5FFFCF7C6FF07EE900ACBEEA77ABFEEC9
:10354000007A2AEE27AA28EE278A2AEECABA69EE5E
:10355000A79AA8EE28BA29EEE8CA78EE4B7A69EE67
:1035600048CA77EEE87AAAEE09CAF4EEC77AF1EE15
:1035700010FAE9EEAACAC0F2448177EEAB7A17EEF0
:10358000900AFCF78BFF0AF0C9FF0022CE4BFCF734
:1035900074FE79EE6C7AF5EEC07AF1EE10FA02DA8A
:1035A00001F100431946FCF78CFF7BEE487ABFEE31
:1035B000007A77EEE87A0BEE900AF4EEC77AF1EE35
:1035C00010FA2860C0F22381B7EE007A77EE877A8E
:1035D00017EE900AFCF762FF0AF0A0FF0022BA4B38
:1035E000FCF74BFE7AEE6A7AF5EEC07AF1EE10FA4D
:1035F00002DA01F100431946FCF763FF78EEC87A5E
:10360000BFEE007A77EECB7A0DEE100AF4EEC77AB1
:10361000F1EE10FA6860C0F2F780B7EE007A77EE4C
:10362000877A17EE900AFCF739FF0AF077FF00223D
:10363000A54BFCF722FE7CEE697AF5EEC07AF1EE3E
:1036400010FA02DA01F100431946FCF73AFF78EE6E
:10365000287ABFEE007A77EE8B7A0DEE900AF4EEC0
:10366000C77AF1EE10FAA860C0F2B981B7EE007A1D
:1036700077EE877A17EE900AFCF710FF0AF04EFFFC
:103680000022914BFCF7F9FDFCF71BFF0EEE100A30
:10369000E37F85ED03EA002B40F02481237F002B9C
:1036A0006AD09AED0D5ADAED0A7A9AED106ADBEDDE
:1036B000065ADAED0B4A9AED0E4A8AED0D9A65EE3E
:1036C000686A29EE677A68EEA77AA5EE2A7AE6EEAE
:1036D000096AE6EE6A7A9AED085ACAED0AAAF5EE88
:1036E000405AF1EE10FAE5EE0A7AA8EE247AE9EEF5
:1036F000846A0CBFDAED025ACAED025AF6EE003ABD
:1037000083EEA56AE4EECA6AA9EEC57AE8EE447AC9
:10371000DAED0F4ADAED095A9AED0C5A8AED0EAA43
:10372000ECEEA57AEBEE246AACEE057AECEE647A68
:10373000ABEE657AECEEC56ADFED685A8AED088A71
:1037400066EEA56A67EEA57A27EE257A66EE866AAA
:1037500067EE867A27EE067AC5ED076AC5ED087A28
:10376000CAED0B9A8AED09CA8AED0CBA85ED097A81
:10377000CAED0FCACAED108A637F002B4AD1A37F1E
:10378000BBB1DBED006A9BED017ADBED027A95EDD2
:103790000A5AD5ED0B5A95ED0C6A76EEC56A37EEEE
:1037A000657A77EEC67AC5ED0D6A85ED0E7AC5EDC0
:1037B0000F7A28686968AA68EB68444C0FC41DB08A
:1037C000BDEC108BBDE8F08F97E80700231D83E860
:1037D000070096E8070004F1100383E807000023C0
:1037E00094ED017AD4ED027AD4ED039A94ED049A23
:1037F00094ED058AD4ED068A8AF80C30D4ED01AA3E
:103800002FE600200021C4E60020002113E700205D
:103810000021E7E60023F1EE6B6AB1EE4D7AF1EE9E
:103820006D7A10AA14A908A84FF07E56CDED096A4A
:103830001493159316938DED0A7ACDED0B7A8DEDD9
:1038400008EA8DED0CEACDED0DBA8DED0EDACDED79
:103850000FDA179600F03EFB18AA10A80CA900F08A
:1038600039FB9DED199A9DED187ADDED1A8A9DEDD3
:103870001B8A69EE097AE7EE077AE8EEA87AE8EEA5
:10388000087A17EE900AFCF709FE0AF047FE024696
:103890000B4600200E49FCF762FDFCF712FE07EE16
:1038A000900A29EE279A68EEA78A28EE278A8DEDDE
:1038B000199ACDED1A8A8DED1B8A19AB07CBA86238
:1038C000E9622A635BE700BF0000E03F0C020020D2
:1038D0000000F03FFC010020DC0FC940DF2E6542F4
:1038E000000000006DEE4D6AB7EE00FAF0EE00FA4F
:1038F000F0EE4F7AE6EEAF7A2DEEED7ACDED016A7D
:10390000E7EE2F7A17EE900AFCF7C8FD6BEE8D7A82
:103910000646EDEE8E7A0F4677EEA77A17EE900AFE
:10392000FCF7BCFD32463B4609F068FDFCF7C9FDDB
:103930006BEEEB7ADDED016A0090A7EEAFFA07EED1
:10394000100AA6EEAFFAF1EE47EAC5ED04EA1FEE63
:10395000100AFCF7A3FD6BEE8E7A0646EDEE2D7A8B
:103960000F4677EEA77A17EE900AFCF797FD3246DE
:103970003B4609F043FDFCF7A4FD6EEE4D7A07EEE1
:10398000100AEBEEAD7AB1EE47FA77EEA77A85ED45
:1039900005FA17EE900AFCF781FD09F01FFDFCF710
:1039A00090FD9DED007AA861B5EEC07AF1EE10FAB7
:1039B000C8BF5FED37EA07EE900AC8BF7EEEC7EAE0
:1039C0001FED3A7A6EEE87EA2FEE07FA67EE877AF6
:1039D000C5ED04EA85ED05FAC5ED067A5EE61FED54
:1039E00040EA55E6024B1A7802B15877704700BF9B
:1039F00054090020024B1A7802B19877704700BF33
:103A000054090020024B1A7802B1D877704700BFE2
:103A100054090020024B1A7802B11877704700BF92
:103A200054090020F0B4264F97F8E0338EB013B954
:103A30000EB0F0BC704707F1A40506460FCD01ACEF
:103A40000FC40FCD0FC40FCD0FC42B682360059991
:103A5000069A97F8A430DDED026AF1603261079FA3
:103A60009DED037ADDED047A9FED166A089D099CB1
:103A70000A980B990C9A86F83030FDEEE66ABDEE96
:103A8000C77AFDEEE77AF8EEE66AB8EEC77AF8EEA6
:103A9000E77A66EE866A27EE067A67EE867A0D9BEF
:103AA0007761C6ED006A86ED017AC6ED027AB561EE
:103AB000F46130627162B262F3620EB0F0BC7047C2
:103AC00074090020CDCCCC3D2DE9F0477C4C7D4ADB
:103AD0002368012523F001032360AEB0134615606F
:103AE0001D68002DFCD1784B784A1A601A68784B13
:103AF0009A4200D0FEE7774C431E4FF0010AB3F51F
:103B00007A7F84F8E0A302D32EB0BDE8F08789461F
:103B100007460FFA80F8002945D104F1A4060FCE1C
:103B200002AD8DF800A00FC50FCE0FC50FCE0FC58B
:103B30003146D4F8D83051F8B0292A600FA87C2239
:103B40000193FCF774FB6946B82007F0A6FA84F8E5
:103B50001490B4F90230604ADB1B07EE903AF8EE9D
:103B6000E77AC823F0EEE77A93FBF7F3B7EE007A33
:103B7000DBB2322BF4EEC77A28BF3223F1EE10FA13
:103B800084F8EA33176040F3898000235349A4F88E
:103B900002804FF4966261602381E36022800023FB
:103BA00084F87C35B0E74FF47A734FF402014C4847
:103BB000E5604FF420722575A56184F8DC5084F827
:103BC0002050A16020612946A38304F1E000FCF7A6
:103BD0004BFB4FF4A066FF234B224FF47050294655
:103BE000C4F86053C4F8D850C4F8A05084F8E12059
:103BF00084F8E2302E2284F86633A4F86403A684A5
:103C000004F1A600FCF730FBA7F10A039BB22EA932
:103C10004FF07E52322B84F8A4504FF0000598BF2D
:103C200084F814A0052384F8A5A0C4F8B420C4F82F
:103C3000C420C4F8D42001F8B85DB8208DF83D3018
:103C400007F028FA012884D0DDF804C08DF8005070
:103C5000BCF1000F3FF47DAF9DF80830002B3FF41E
:103C600078AF9DF83C30002B3FF473AF9DF83D20BA
:103C70009A42FFF46EAF02AD0FCD1A4E0FC60FCDB4
:103C80000FC60FCD0FC630462B6840F8B0397C22E6
:103C90000FA9C4F8D8C0FCF7CAFA5AE7D4ED017AE4
:103CA000DFED116A9FED117A77EEE67AF0EEE77AB2
:103CB000F4EEC77AF1EE10FA3FF767AF6FE700BF97
:103CC000002000E00830024000300240C2A507F4A6
:103CD000CDB5E8B57409002040020020CDCCCC3D24
:103CE000F88E0020180A0020CDCCCC3D0AD7233C0A
:103CF000744B93F8E023002A7BD090ED007AF2EE2B
:103D0000047A67EE277AB5EEC07AF1EE10FAB6EED5
:103D1000007AACBF77EE877A77EEC77A90ED017ABA
:103D2000FDEEE77AB5EEC07A17EE901AF2EE047A5D
:103D300067EE277AF1EE10FAB6EE007AACBF77EEB6
:103D4000877A77EEC77A90ED027AFDEEE77A2DE971
:103D5000F04717EE904AF2EE047A67EE277AB5EE56
:103D6000C07AF1EE10FAB6EE007AACBF77EE877A41
:103D700077EEC77A93F87C65FDEEE77A17EE902A26
:103D80007EB3514DF0002D681F1815FB06F5A7F8FE
:103D9000EC5347F6FE754D4FA942A8BF2946AA42EB
:103DA000A8BF2A46B942B8BF3946BC4222DBAC4262
:103DB000A8BF2C4624B2454D93F8EAC3AA4206F1A7
:103DC0000107B8BF2A46FFB21D18BC45A5F8F2236B
:103DD000A5F8EE13A5F8F04383F87C750CD0BDE888
:103DE000F087C068C3F8E403012083F8E803304695
:103DF000CFE770472C46DEE793F8E823D3F8E48357
:103E0000002183F87C1582B3B3F80AE01A89D3E95C
:103E10000317BCF1000F26D0BEF1000F23D02C49B0
:103E2000724501F1080428BF724604EBC6066FF024
:103E300060494FF0010C013292B2724528BF7246C0
:103E400002EB090507EBC504D1F80AA007F835C055
:103E5000C4F802A0CD89E5800831B142EBD1184405
:103E6000B0F8EC1341441A81D9601A7D002AB6D00B
:103E700019895A898A421DD0B3F90250F1B1DA6822
:103E800001322A44501C19D002F51C541034986990
:103E9000A0429C8B84BF9A611046204482429ED3EC
:103EA00021B1DB68013905FB113189B2531A1BB20C
:103EB000A34294DBBDE8F047FCF73ABD42F2107430
:103EC0000022E4E774090020400200200280FFFF86
:103ED000580D002090ED014AD1ED017AD0ED004A55
:103EE00091ED005AD0ED025A91ED026AD0ED036ACD
:103EF00091ED037A67EEC47AE4EE857AE5EEC67A50
:103F0000E6EEC77AC2ED007A91ED004AD0ED017A73
:103F1000D0ED004A91ED015AD0ED025A91ED036ABD
:103F2000D0ED036A91ED027A67EE847AE4EE857A49
:103F3000E5EE867AE6EEC77AC2ED017A91ED004AA7
:103F4000D0ED027AD0ED004A91ED025A91ED016A6E
:103F5000D0ED035AD0ED016A91ED037A67EE847AD1
:103F6000E4EE857AE5EE867AE6EEC77AC2ED027A6D
:103F7000D0ED017A91ED024AD0ED004A91ED035A5D
:103F8000D0ED026AD0ED035A91ED006A91ED017A0D
:103F900067EE847AE4EE857AE5EE867AE6EEC77A15
:103FA000C2ED037A704700BF2DE9F04F8FB0CDE925
:103FB00002014FEA820B0C46002000274FF07E568C
:103FC00005B2AA4211DD214600230FFA83FC01331A
:103FD00065450FFA83FC0CBF0E600F60624501F16E
:103FE0000401F2DC01305C44EAE7022A40F31B8161
:103FF00002999FED8F5ADFED8F5A594408460BF115
:10400000040100230491911E01930691BFEE006A02
:10401000824606998B4280F20681591C0BB2DFED75
:10402000856A18465446904207DAD4ED007A01308A
:10403000E7EEA76A00B25C44F5E7F0EEE67AF4EE4C
:10404000C57AF1EE10FA00F1E880F1EEE67ABDF8FB
:1040500004000093871C08AD8C00BFB205EB040878
:104060000FFA87FC4FEA8C0C0AEB0B0600259AED41
:10407000007AB5EEC07AF1EE10FAA8BFF1EE677AD9
:1040800037EE677ACAED007A88ED007A07EB050E05
:104090000FFA8EFE72450CDD0CEB850E08AB9E44CC
:1040A000D6F80090CEF80090C6ED005A01355E4477
:1040B000ECE798ED007A009B029F079367EE877A02
:1040C00002FB013586EE277A07EB8505043C990053
:1040D000AAEB0404461C059508AD0C440D44B6B289
:1040E0001F464FF0000C974233DA059BDFED517A03
:1040F0000CEB030E002306EB03080FFA88F8424589
:1041000005EB830908DDDEED006AD9ED004A0133D5
:10411000E4EEA67ADE44EEE767EE877A0CEB040E57
:10412000002306EB03080FFA88F8424505EB8309E4
:104130000ADDDEED006AD9ED004AE4EEE76A0133FC
:10414000CEED006ADE44ECE701373FB20CF1040C1F
:10415000C9E7029C079B013080B20C444FF0000C71
:10416000DFED347A002600EB060E0FFA8EFEB70064
:10417000724505EB0708274407DDD8ED004AD7ED67
:10418000006A0136E4EEA67AEDE767EE877AAE467E
:1041900027461E4696420ADAD7ED006AFEEC014A2F
:1041A000E4EEE76A013636B2E7EC016AF2E70CF1B9
:1041B000010C0FFA8CF6B2425C44D1DC039C002760
:1041C0002144DFED1C7A002400EB040C0FFA8CFC78
:1041D000A600624505EB060E0E4407DDDEED004A43
:1041E000D6ED006A0134E4EEA67AEDE767EE877A51
:1041F000AC460E461C4694420ADAD6ED006AFCEC48
:10420000014AE4EEE76A013424B2E6EC016AF2E71F
:1042100001373CB2A2425944D3DC04998A44019943
:1042200001310191F5E600200FB0BDE8F08F00BF2D
:10423000BD3786350000000090ED016AD0ED036ABD
:1042400090ED057AD0ED077AB4EE666AF1EE10FAD9
:1042500030B410D190ED026AD0ED066AB4EE666A11
:10426000F1EE10FA07D1B4EE677AF1EE10FA0CBF56
:104270000125002500E00025D0ED046A8C6867EE7A
:10428000C77A90ED087AE6EE877AD1E90023C2ED8D
:10429000007A90ED036AD0ED087AD0ED056A90EDD2
:1042A000067A67EEC67AE6EE877AC3ED007A90ED7D
:1042B000046A90ED067AD0ED036AD0ED077A27EE16
:1042C000467AA6EEA77A84ED007AD0ED017A93EDD6
:1042D000005AD0ED006AD2ED005A90ED026A67EE06
:1042E000857AE6EEA57AE7EE067AF5EE407AF1EE0B
:1042F00010FA75D090ED067AD0ED085A27EE467A7E
:10430000A6EEA57A83ED017AD0ED075A90ED007AFA
:1043100090ED066AD0ED016A27EE657AA6EE267A60
:1043200084ED017AD0ED035A90ED017A90ED046AA4
:10433000D0ED006A27EE657AA6EE267A84ED027A41
:1043400055BBD0ED085A90ED017A90ED076AD0ED9B
:10435000026A27EE657AA6EE267A82ED017AD0ED22
:10436000045A90ED027A90ED056AD0ED016A27EECD
:10437000657AA6EE267A82ED027AD0ED055A90EDA6
:10438000007A90ED036AD0ED026A27EE657AA6EE18
:10439000267A83ED027A05E0186850602068906004
:1043A00062689A60F7EE006A86EEA77A0A1F083103
:1043B00052F8043F914293ED006AD3ED016AD3EDC8
:1043C000027A26EE076A66EE876A67EE877A83EDE1
:1043D000006AC3ED016AC3ED027AE9D1012000E071
:1043E000002030BC704700002DE9F04F2DED028B0E
:1043F0009FEDB65A9FEDB34A9FEDB33A93B04FF09D
:10440000020E00910592F0EE454AF0EE453AF24672
:1044100083460AEB4A039B004FEA8A0C0BEB03022C
:104420000AF1FF3E183B029263444FEA8E0201926A
:104430005B44029A01980E93029BCDF820C0A2F132
:104440000C010818634461440C910693DDE90113E3
:10445000019A0B900B440793029B103A13440A9362
:10446000AAF102030993012303930BF104031193AF
:10447000069A029B504600281146A2F1100217DD51
:1044800011ED047AD1ED007A51ED016AB0EEC77AF0
:10449000F0EEE77A77EE277AB0EEE67A67EE847A86
:1044A000B4EEE77AF1EE10FA02D901380C3BE2E7FC
:1044B000BAEB0002049002D0012A0FD0D1E0049A96
:1044C000059992001344D3ED007A75EE277A0A44D9
:1044D000C3ED007AD646C2ED007AB6E20EEB4E038B
:1044E000DDF820C00198019C0BEB830303F10C0263
:1044F00002EB0C011818D0ED005AD1ED007A2244DD
:1045000003EB0C0494ED006AD2ED006A019C35EED9
:10451000E77A26EE266A75EE855AF6EE007A67EEA1
:10452000277AC0ED005AF0EE465AE7EEA75A0598F2
:1045300091ED007AF5EEC05A35EE077AF1EE10FAF9
:1045400000EB040581ED007A00EB0C0440F382805F
:10455000F1EEE56A0CF1080003447046F5EEC07A0E
:10456000F1EE10FA4CBF77EEE67A77EEA67AC6EE59
:10457000276A37EE277A27EEA76A85ED007A91ED54
:10458000007A37EE667A84ED007AD2ED006AB0EEFA
:10459000467AA6EEA67AB1EEC76A86EE867AC7EEAE
:1045A000866A04330130022853ED045A53ED017A30
:1045B00025EEC76A53ED012A67EE277AA6EEA26AB6
:1045C000E6EEA57A03ED016A43ED047AE9DD019B8D
:1045D00000210BEB03020BEB0C03514502F10C0223
:1045E00003F10C0313DC53ED037A52ED035A67EE2B
:1045F000277A25EEC76AE6EEA57A013142ED037A05
:1046000053ED037AA6EEA76A03ED036AE5E7009B84
:1046100003F12402DDE90003034419460346624422
:104620006344D3ED007AD1ED005A67EE277A25EE88
:10463000C76AE6EEA57A17EE900A41F80C0BD3EDA7
:10464000007AA6EEA76A16EE100A43F80C0B9A42FF
:10465000E7D1FAE177EE877AC5ED007AC4ED007A0A
:10466000F3E1039A039B0A2193FBF1F301FB13236C
:10467000069A92ED007A6BBB35EE075A06995A46B8
:10468000534502F1100209DC12ED047AD1ED007AF3
:1046900077EE677A013342ED047AF1E7079B93EDF9
:1046A000007A0A9BD3ED007AB0EEC77AF0EEE77A93
:1046B00077EE277AB7EE087A27EEA71A67EE877AA1
:1046C00017E000BF00000034BD3786350000000051
:1046D0000000004B0C9BD3ED007A079B93ED001A72
:1046E0000B9B21EE671AD3ED006AA6EE871A76EED1
:1046F000877ADDE908210E9B02F108050F95049DDC
:10470000141FC81CA2F10807161D8D4202F11402E5
:104710000D9201F1FF39844622464EDC13ED026A08
:10472000D3ED011A93ED027A53ED012AD3ED050A78
:1047300076EE676AB0EE410AA6EE260A9846A3F125
:10474000100376EE876A80EE212AF0EEC65A32EE2A
:10475000222AB0EEC76AF0EEE62AB0EEE07A72EEF8
:10476000872AB0EEC27A72EE872A82EE227A86EE2D
:10477000A22AC0EEA21AF0EEC76AB0EEC22A1CD07E
:1047800018ED067A58ED032AB0EEC77A37EE257A8F
:10479000F0EEE15A37EE067A72EE255A27EE047AE9
:1047A000B0EEE26A25EE866A27EE267AB4EEC76A94
:1047B000F1EE10FA01D949469EE701F1020909EB31
:1047C00049039B008A0003EB02080F9DD844D145A2
:1047D00008F1100804DC48ED044A09F10109F6E784
:1047E0000BEB0010D44500F1100004DC40ED074A4B
:1047F0000CF1010CF6E7183B5B441F4497ED007A7F
:104800000D9877EE676A1E44A7EE261A1D441C44D5
:10481000D6ED002AD5ED006A94ED006A009DC1EE48
:10482000225A1844044604350D95009D08350F950D
:10483000009D28351344084637EE267A94ED002A69
:10484000109577EE677A75EE865AB0EEC27AB0EEC2
:10485000E76A36EE076AB0EEE57A36EE076AB0EE42
:10486000637AC5EE866AC7EE862AC2EE065A70459E
:1048700000F3E28088421FDD704513ED012A93EDBD
:10488000026A14BFD3ED055A5FED705AB0EEC27ADA
:10489000F0EEC67A77EE277AB0EEE57A37EE877AD1
:1048A000B4EEC37AF1EE10FA00F1C280C2EE076AEC
:1048B000C6EE072AC5EE875A22EEA26AF5EEC06A56
:1048C000A6EEA66AF1EE10FAA5EEA56AF1EEC67A9A
:1048D00048BFF1EE677A884204DD27EE677A03ED80
:1048E000017A08E0049C8C4205D013ED017AB1EE08
:1048F000477A03ED017A76EEA76AC2EEA71A1C4644
:10490000054685EEA71A86EEA77AC2EEA62AC5EE60
:10491000A65AB1EE478AB1EE410AF1EE610AD4ED32
:10492000006A94ED036AF0EE667A704505F10105C0
:10493000E2EE867A07D094ED062AE5EE827AA0EEC2
:10494000272A84ED062AA0EEA76A022DE8EE276A40
:1049500084ED036AE4EC016AE1DD00F1030C119CD3
:10496000D445A8BFD44602F1040902F10808144452
:104970000BEB02050027B1EE626AB1EE652AA4EBEB
:104980000906BC45464424DBD4ED007AD5ED006A27
:1049900061EEA77A704507F10107E7EE267A07D0A6
:1049A000D6ED006AE1EE267AE2EE276AC6ED006AED
:1049B000D4ED006AE6EE276A16EE906A44F80C6BB6
:1049C000D5ED006A76EEE77A17EE906A45F80C6B43
:1049D000D5E7009C0F9D109FA6180D9C154414440C
:1049E0001744B1EE652AD4ED006AD6ED007A61EE87
:1049F000A66A7045E7EE276A07D0D5ED007AE1EEAA
:104A0000276AE2EE267AC5ED007AD4ED007AE6EE6A
:104A1000267A0C3517EE90CA44F80CCBD6ED007A06
:104A200077EEE67AA74217EE90CA46F80CCBDAD1B9
:104A30000130103304321AE7039B01330B2B03932D
:104A40007FF416AD4FF0FF30BFE0BEF1010A7FF5F5
:104A5000E0AC9BED036ADBED005ADBED047ADBEDA5
:104A6000056A9BED077A5FEDE64A9FED5A4A059E7F
:104A7000F0EEE55AB0EEC66A36EE256AF0EEE77A59
:104A800077EE867AF0EEE66A76EEA76A0BF1200EF4
:104A9000B0EEC77ADEED007A37EE267AF0EEE77AEE
:104AA00077EE877AB7EE006A84EEA75A0BF108001A
:104AB000024602244FF00C09F0EE465A8EED006AD1
:104AC000714675462346B3F101082DD451ED046AB1
:104AD00096ED027A55ED037A36EEC77AA1F10C0C09
:104AE00009FB0307A34207F10C0707DAFCEC014AB4
:104AF00057ED036A0133E4EEA67AF3E7F0EEC76AF6
:104B0000F4EEC46AF1EE677AF1EE10FAC8BFC7EEB0
:104B1000876AA1F11001D8BF65EE276A16EE903AB8
:104B200045F80C3D4346CEE7013C651CAEF1100E46
:104B3000A6F10406A0F10400C0D10099022301F1FE
:104B4000240600999F00DFED247A0D4614460020CC
:104B5000A446F5EC016A9CED007A0130984204F11C
:104B60000C04E6EE877AF3DDC8190C31B142C0EDD2
:104B7000007AE8D1013B591CA2F10402E1D100996D
:104B800001F10C00DFED147A0A460023144694ED7F
:104B9000007A0133032B02F10C02E7EE077AF5D11C
:104BA000F1EEE76A0A46002385EEA67A0133032B6D
:104BB000D2ED007A67EE877A17EE904A42F80C4BF6
:104BC000F4D104318842DDD1002013B0BDEC028B5A
:104BD000BDE8F08FBD378635000000002DE9F04FAD
:104BE000804D00241C60146095F8E0E095F8E180A9
:104BF00095F9E240F7EE007AC64583B004F101046E
:104C0000A94687EE804A05D194FBFEF50EFB1544BC
:104C100025B20AE0A4EB0E0494FBF8F508FB15445A
:104C2000002C25B2BCBF444425B2DFED6F3AF3EE51
:104C30000E7A4FF0000A6CB264EE233A24EE274A53
:104C40000194D346019C04EB0A055FFA8AF4A64559
:104C500040F2A48095FBF8F408FB1454E4B2043449
:104C600009EBC4048788B4F8E660B4F8E250B0F801
:104C700000C0B4F8E44091ED052AD1ED022AD1ED4F
:104C8000030A91ED077A91ED011AD1ED044AD1EDB5
:104C9000086AD1ED061AD1ED005A92ED003AF61BE2
:104CA00036B2478807EE906AA5EB0C052DB2F8EEF8
:104CB000E77AE41B06EE105A24B2B8EEC66A05EE97
:104CC000104A27EE822AB8EEC55A67EEA22AA6EE4F
:104CD000202A0BF101060AF1010A25EE077AE5EE1A
:104CE000012A25EE245A67EEA67ABDEEC22AFDEE11
:104CF000C56AA6EE217A26EE256A16EE907A12EEA5
:104D0000104AFDEEE22ABDEEC66A3C4414FB04F7ED
:104D100012EE905A16EE104ABDEEC77AFDEEE77A13
:104D2000254415FB057517EE904A17EE107A2744B7
:104D300017FB075407EE904AF8EEE77AB1EEE77AF0
:104D4000BDEEC77A17EE104A24B207EE104AB8EE4D
:104D5000C77A77EE637A33EE077AF0EEE77AFDEE04
:104D6000E77A82ED007A17EE904A24B207EE904A75
:104D700004FB04F4B8EEE77A07EE904AB4EEC74AB3
:104D8000F8EEE77A93ED007A77EE277AF1EE10FAF3
:104D900048BF5FFA86FBC3ED007A53E707EE90EA5F
:104DA00093ED007ADFED116AF8EEE77A584687EE68
:104DB000276AB1EEC67A20EE077AB4EEE67AF1EE13
:104DC00010FAB8BFB0EE667A83ED007A92ED007A01
:104DD00020EE070A80EE277A82ED007A03B0BDE864
:104DE000F08F00BF7409002000003C429A99593F9F
:104DF00070B504460D461048007800F010001028E9
:104E000019D10E4A0221284603F096FD0B480422D0
:104E1000016804F1170006F0FCFB08480422416811
:104E200004F11B0006F0F5FB04480422816804F13C
:104E30001F0006F0EEFB70BDC001002068080020D6
:104E400010B500F057FE10BD10B56FF0070405480F
:104E500003F032F9034800F079FE00B9002420463F
:104E600010BD0000AC08002010B500240D480E490C
:104E70000860084600F088FE90B90B4803F048F936
:104E8000094805F017FF10B16FF0070408E0002192
:104E9000054800F035FE10B16FF0070400E0002473
:104EA000204610BD00540040AC0800202DE9FE4310
:104EB00004460D4616461F466FF007084FF47A70F9
:104EC00001232A462146CDE900670290044800F0FC
:104ED0003BFF08B94FF000084046BDE8FE830000E4
:104EE000AC0800202DE9FE4304460D4616461F4639
:104EF0006FF007084FF47A70E1B201232A46CDE93A
:104F000000670290044801F099F808B94FF00008D2
:104F10004046BDE8FE830000AC08002010B586B016
:104F2000044600BF002000901348006840F00100D4
:104F3000114908600846006800F00100009000BFB9
:104F400000BF0E4830F814000190012002900020AC
:104F50000390022004900A4951F8240001A900F0AE
:104F6000D9FC064A32F81410054A52F824000022EF
:104F700000F0BAFD06B010BD30380240D0E600089F
:104F80003001002010B50446044A32F81410044AD7
:104F900052F82400002200F0A7FD10BDD0E6000862
:104FA0003001002010B50446044A32F81410044AB7
:104FB00052F82400012200F097FD10BDD0E6000851
:104FC0003001002030B587B004460D4600BF0020F8
:104FD00001901D48006840F004001B490860084625
:104FE000006800F00400019000BF00BF75B91748C9
:104FF00030F81400029000200390022004900590E5
:10500000134951F8240002A900F084FC012D19D1A4
:105010000E4830F814000290002004900D480390D0
:105020000B4951F8240002A900F074FC0A49095DFB
:1050300048B200220F2101F0C7F90749095D48B2C3
:1050400001F0B5F907B030BD30380240D2E60008B3
:105050003401002000002110D4E6000841790171DC
:10506000322242718179803181717047F0B50546F5
:105070000E460024002706E0321DD15D281900F0FD
:105080000AF804447F1C3068B842F5D8F02028554F
:10509000641C2046F0BD02460220F02902D0F1290E
:1050A00009D104E0F1231370F223537006E0F123D9
:1050B0001370537002E01170012000BF00BF7047F1
:1050C00001460023002204E0081D805C1844C3B29E
:1050D000521C08689042F7D80868401E08600BB957
:1050E000012070470020FCE70022002104E0031D9E
:1050F0005B5CD31ADAB2491C03688B42F7D8031DF4
:105100005A5403685B1C0360704700000C4901603F
:105110004FF00061416000228260C2604A14026167
:10512000002242618261CA14C261CA120262002274
:105130004262032282620A11C26202637047000067
:10514000886002400146087810381823B0FBF3F25B
:105150000848805CC865032A05D908686FF3090010
:10516000001D886503E008686FF309008865886D95
:1051700070470000EDE60008014600208A6A8B694E
:10518000CBB932B1012A0DD0022A03D0032A10D1A3
:105190000EE000BFCB6A03F08073B3F1807F00D1D3
:1051A000012007E0CB6AB3F1C07F00D1012001E00C
:1051B00000E000BF34E08B69B3F5005F1AD132B173
:1051C000012A07D0022A03D0032A11D10AE000BF26
:1051D00001200EE0CB6A03F08073B3F1807F00D131
:1051E000012006E0CB6AB3F1C07F00D1012000E0CE
:1051F00000BF15E032B1012A05D0022A04D0032AEB
:105200000CD103E000BF00BF012008E0CB6A03F02F
:105210008073B3F1807F00D1012000E000BF00BFA8
:10522000704730B50468246824F4802405682C6035
:10523000046863608468402C04D10468A260046838
:10524000E16003E00468A1600468E26030BD70477B
:1052500002464B1E1946D05C04E000024B1E194664
:10526000D35C18440029F8D1704710B54FF40050B2
:1052700000F042FB10BD00BF0020FFF793FE64204A
:1052800000F088FA0020FFF77DFE642000F082FA2B
:10529000F2E701B52DED020B009901600EBD01464C
:1052A00008684068704700000146C34A0868904299
:1052B0005DD9C14854380068C04B0A689A4201D190
:1052C000012252E0BC4B483B0A689A4201D10122BC
:1052D0004BE0BA4B60330A689A4201D1012244E0A4
:1052E000B54B18330A689A4201D101223DE0B34B15
:1052F00018330A689A4201D1402236E0AE4B303B67
:105300000A689A4201D140222FE0AC4B78330A68F8
:105310009A4201D1402228E0A74B30330A689A42D2
:1053200001D1402221E0A54B30330A689A4202D1D4
:105330004FF4803219E0A04B183B0A689A4202D120
:105340004FF4803211E09D4B90330A689A4202D1AB
:105350004FF4803209E0984B48330A689A4202D1F0
:105360004FF4803201E04FF4800210407047934ABE
:10537000A832086890425DD98F48583800688F4B32
:105380000A689A4201D1012252E08B4B483B0A68DD
:105390009A4201D101224BE0884B60330A689A425D
:1053A00001D1012244E0844B18330A689A4201D1AA
:1053B00001223DE0814B18330A689A4201D1402214
:1053C00036E07D4B303B0A689A4201D140222FE003
:1053D0007A4B78330A689A4201D1402228E0764B12
:1053E00030330A689A4201D1402221E0734B3033B6
:1053F0000A689A4202D14FF4803219E06E4B183B92
:105400000A689A4202D14FF4803211E06B4B90331C
:105410000A689A4202D14FF4803209E0664B483361
:105420000A689A4202D14FF4803201E04FF48002C0
:1054300010409BE7614A4832086890425DD95F4856
:10544000103840685D4B0A689A4201D1012252E04F
:10545000594B483B0A689A4201D101224BE0574B15
:1054600060330A689A4201D1012244E0524B18335A
:105470000A689A4201D101223DE0504B18330A6874
:105480009A4201D1402236E04B4B303B0A689A42A7
:1054900001D140222FE0494B78330A689A4201D16A
:1054A000402228E0444B30330A689A4201D140221E
:1054B00021E0424B30330A689A4202D14FF48032E5
:1054C00019E03D4B183B0A689A4202D14FF48032F2
:1054D00011E03A4B90330A689A4202D14FF480327D
:1054E00009E0354B48330A689A4202D14FF48032C2
:1054F00001E04FF48002104038E73048103800686F
:105500002E4B0A689A4201D1012252E02A4B483BB5
:105510000A689A4201D101224BE0284B60330A68A5
:105520009A4201D1012244E0234B18330A689A427F
:1055300001D101223DE0214B18330A689A4201D182
:10554000402236E01C4B303B0A689A4201D140228F
:105550002FE01A4B78330A689A4201D1402228E0A2
:10556000154B30330A689A4201D1402221E0134B97
:1055700030330A689A4202D14FF4803219E00E4B60
:10558000183B0A689A4202D14FF4803211E00B4B6B
:1055900090330A689A4202D14FF4803209E0064BF8
:1055A00048330A689A4202D14FF4803201E04FF446
:1055B00080021040DAE600005864024010600240A9
:1055C0003EB504460D460F48007800F02000202824
:1055D00016D16A460121284603F0AEF9042204F1EF
:1055E0002300009906F015F8042204F12700019920
:1055F00006F00FF8042204F12B00029906F009F8D6
:105600003EBD0000C00100202DE9F0410446002508
:1056100000F070FA074614B90120BDE8F081606A15
:1056200000B100BF00BF002084F8340000BF02209A
:1056300084F835002068006820F0010021680860C7
:105640000AE000F057FAC01B052805D92020606544
:10565000032084F83500E0E72068006800F00100CE
:105660000028EED12068056821480540D4E90101F1
:105670000843E16808432169084361690843A16957
:105680000843E1690843216A08430543606A042826
:1056900003D1D4E90B010843054320680560206865
:1056A000456925F00705606A0543606A04280DD145
:1056B000A06A0543E06A48B12046FFF75DFD28B1C6
:1056C00040206065012084F83500A6E72068456128
:1056D0002046FFF737FD064694F85C103F208840CF
:1056E000B06000206065012084F83500002094E758
:1056F0003F8010F02DE9F04704460D4616461F4640
:105700004FF00008D4F8589000BF94F834000128F6
:1057100002D10220BDE8F087012084F8340000BFE8
:1057200094F8350001282BD1022084F835000020A0
:1057300060653B46324629462046FFF772FD94F8E5
:105740005C103F208840C9F808002068006840F0DD
:105750001600216808602068406940F080002168D8
:105760004861206C28B12068006840F0080021687A
:1057700008602068006840F001002168086006E0C9
:1057800000BF002084F8340000BF4FF002084046FC
:10579000C0E7000070B5044600F0ACF906462546A7
:1057A000681C10B104480078054400BF00F0A2F95D
:1057B000801BA842FAD370BD88010020F0B50C46CA
:1057C000002500220023002181E0012606FA01F5D0
:1057D00004EA0502AA4279D13F4E8F0856F82730D5
:1057E0008E07370F0F26BE4033403C4EB04201D1EA
:1057F000002614E03A4EB04201D101260FE0394EA6
:10580000B04201D102260AE0374EB04201D1032650
:1058100005E0364EB04201D1042600E007268F078E
:105820003F0FBE409E4222D18E07370F0F2606FA49
:1058300007F3294E8F0856F827609E43264F4FEAFC
:10584000910C47F82C602A4E36689643284F3E60EC
:105850003E1D366896433F1D3E603E1D36689643AA
:105860003F1D3E603E1D366896433F1D3E60066804
:105870004FEA410C032707FA0CF7BE430660CF0836
:1058800000F1200656F827604F074FEAD76C0F2724
:1058900007FA0CF7BE434FEAD10C00F1200747F896
:1058A0002C6086684FEA410C032707FA0CF7BE43C9
:1058B0008660466801278F40BE434660C6684FEA4F
:1058C000410C032707FA0CF7BE43C660491C102998
:1058D000FFF47BAFF0BD000008380140000002403B
:1058E0000004024000080240000C02400010024088
:1058F000003C01407047000010B5044604480068B1
:10590000204020B1024804602046FFF7F3FF10BD9D
:10591000143C0140F8B503460A4600250024002047
:105920000021CDE0012606FA01F5166806EA050415
:10593000AC4273D15668022E02D05668122E13D193
:10594000CF0803F1200656F827004E07F70E0F2662
:10595000BE40B0434F07FF0E1669BE403043CF082C
:1059600003F1200646F8270018684F000326BE40C2
:10597000B043167906F003064F00BE40304318606E
:105980005668012E08D05668022E05D05668112E92
:1059900002D05668122E13D198684F000326BE40DD
:1059A000B0434F00D668BE40304398605868012627
:1059B0008E40B0431679C6F300168E4030435860CF
:1059C000D8684F000326BE40B0434F009668BE40E3
:1059D0003043D860566806F08056B6F1805F6ED1CD
:1059E00000BF00260096384E366846F48046364F93
:1059F0003E603E46366806F48046009600BF00BF13
:105A0000324E8F0856F827008E07370F0F26BE40FC
:105A1000B0432F4EB34202D1002615E04FE02D4E89
:105A2000B34201D101260FE02B4EB34201D1022631
:105A30000AE02A4EB34201D1032605E0284EB342C4
:105A400001D1042600E007268F073F0FBE403043F8
:105A50001E4E8F0846F82700224E3068A043566835
:105A600006F48036B6F5803F00D120431D4E3060ED
:105A7000361D3068A043566806F40036B6F5003F80
:105A800000D12043174E361D3060361D3068A043CC
:105A9000566806F48016B6F5801F00D12043114EDB
:105AA00008363060361D3068A043566806F400168C
:105AB000B6F5001F00D120430A4E0C363060491C59
:105AC0001029FFF42FAFF8BD4438024008380140D8
:105AD000000002400004024000080240000C0240A6
